{
  "contractName": "TreeFactoryV3",
  "abi": [
    {
      "anonymous": false,
      "inputs": [
        {
          "indexed": false,
          "internalType": "uint256",
          "name": "treeId",
          "type": "uint256"
        }
      ],
      "name": "AssignedTreeVerified",
      "type": "event"
    },
    {
      "anonymous": false,
      "inputs": [
        {
          "indexed": false,
          "internalType": "uint256",
          "name": "lastRegualarTreeId",
          "type": "uint256"
        }
      ],
      "name": "LastRegualarTreeIdUpdated",
      "type": "event"
    },
    {
      "anonymous": false,
      "inputs": [
        {
          "indexed": false,
          "internalType": "uint256",
          "name": "treeId",
          "type": "uint256"
        }
      ],
      "name": "TreeAssigned",
      "type": "event"
    },
    {
      "anonymous": false,
      "inputs": [
        {
          "indexed": false,
          "internalType": "uint256",
          "name": "treeId",
          "type": "uint256"
        }
      ],
      "name": "TreeListed",
      "type": "event"
    },
    {
      "anonymous": false,
      "inputs": [
        {
          "indexed": false,
          "internalType": "uint256",
          "name": "treeId",
          "type": "uint256"
        },
        {
          "indexed": false,
          "internalType": "string",
          "name": "treeSpecs",
          "type": "string"
        }
      ],
      "name": "TreeSpecsUpdated",
      "type": "event"
    },
    {
      "anonymous": false,
      "inputs": [],
      "name": "TreeStatusBatchReset",
      "type": "event"
    },
    {
      "anonymous": false,
      "inputs": [],
      "name": "TreeUpdateIntervalChanged",
      "type": "event"
    },
    {
      "anonymous": false,
      "inputs": [
        {
          "indexed": false,
          "internalType": "uint256",
          "name": "treeId",
          "type": "uint256"
        }
      ],
      "name": "TreeUpdatedVerified",
      "type": "event"
    },
    {
      "anonymous": false,
      "inputs": [
        {
          "indexed": false,
          "internalType": "address",
          "name": "planter",
          "type": "address"
        },
        {
          "indexed": false,
          "internalType": "uint256",
          "name": "nonce",
          "type": "uint256"
        }
      ],
      "name": "TreeVerified",
      "type": "event"
    },
    {
      "inputs": [],
      "name": "PLANT_ASSIGN_TREE_TYPE_HASH",
      "outputs": [
        {
          "internalType": "bytes32",
          "name": "",
          "type": "bytes32"
        }
      ],
      "stateMutability": "view",
      "type": "function",
      "constant": true
    },
    {
      "inputs": [],
      "name": "PLANT_TREE_TYPE_HASH",
      "outputs": [
        {
          "internalType": "bytes32",
          "name": "",
          "type": "bytes32"
        }
      ],
      "stateMutability": "view",
      "type": "function",
      "constant": true
    },
    {
      "inputs": [],
      "name": "VERIFY_UPDATE_TYPE_HASH",
      "outputs": [
        {
          "internalType": "bytes32",
          "name": "",
          "type": "bytes32"
        }
      ],
      "stateMutability": "view",
      "type": "function",
      "constant": true
    },
    {
      "inputs": [],
      "name": "accessRestriction",
      "outputs": [
        {
          "internalType": "contract IAccessRestriction",
          "name": "",
          "type": "address"
        }
      ],
      "stateMutability": "view",
      "type": "function",
      "constant": true
    },
    {
      "inputs": [],
      "name": "isTreeFactory",
      "outputs": [
        {
          "internalType": "bool",
          "name": "",
          "type": "bool"
        }
      ],
      "stateMutability": "view",
      "type": "function",
      "constant": true
    },
    {
      "inputs": [],
      "name": "lastRegualarTreeId",
      "outputs": [
        {
          "internalType": "uint256",
          "name": "",
          "type": "uint256"
        }
      ],
      "stateMutability": "view",
      "type": "function",
      "constant": true
    },
    {
      "inputs": [],
      "name": "marketPlace",
      "outputs": [
        {
          "internalType": "contract IMarketPlace",
          "name": "",
          "type": "address"
        }
      ],
      "stateMutability": "view",
      "type": "function",
      "constant": true
    },
    {
      "inputs": [],
      "name": "planterContract",
      "outputs": [
        {
          "internalType": "contract IPlanterV2",
          "name": "",
          "type": "address"
        }
      ],
      "stateMutability": "view",
      "type": "function",
      "constant": true
    },
    {
      "inputs": [],
      "name": "planterFund",
      "outputs": [
        {
          "internalType": "contract IPlanterFund",
          "name": "",
          "type": "address"
        }
      ],
      "stateMutability": "view",
      "type": "function",
      "constant": true
    },
    {
      "inputs": [
        {
          "internalType": "address",
          "name": "",
          "type": "address"
        }
      ],
      "name": "plantersNonce",
      "outputs": [
        {
          "internalType": "uint256",
          "name": "",
          "type": "uint256"
        }
      ],
      "stateMutability": "view",
      "type": "function",
      "constant": true
    },
    {
      "inputs": [
        {
          "internalType": "uint256",
          "name": "",
          "type": "uint256"
        }
      ],
      "name": "tempTrees",
      "outputs": [
        {
          "internalType": "uint64",
          "name": "birthDate",
          "type": "uint64"
        },
        {
          "internalType": "uint64",
          "name": "plantDate",
          "type": "uint64"
        },
        {
          "internalType": "uint64",
          "name": "countryCode",
          "type": "uint64"
        },
        {
          "internalType": "uint64",
          "name": "otherData",
          "type": "uint64"
        },
        {
          "internalType": "address",
          "name": "planter",
          "type": "address"
        },
        {
          "internalType": "string",
          "name": "treeSpecs",
          "type": "string"
        }
      ],
      "stateMutability": "view",
      "type": "function",
      "constant": true
    },
    {
      "inputs": [
        {
          "internalType": "uint256",
          "name": "",
          "type": "uint256"
        }
      ],
      "name": "tempTreesModel",
      "outputs": [
        {
          "internalType": "uint256",
          "name": "",
          "type": "uint256"
        }
      ],
      "stateMutability": "view",
      "type": "function",
      "constant": true
    },
    {
      "inputs": [],
      "name": "treeToken",
      "outputs": [
        {
          "internalType": "contract ITree",
          "name": "",
          "type": "address"
        }
      ],
      "stateMutability": "view",
      "type": "function",
      "constant": true
    },
    {
      "inputs": [],
      "name": "treeUpdateInterval",
      "outputs": [
        {
          "internalType": "uint256",
          "name": "",
          "type": "uint256"
        }
      ],
      "stateMutability": "view",
      "type": "function",
      "constant": true
    },
    {
      "inputs": [
        {
          "internalType": "uint256",
          "name": "",
          "type": "uint256"
        }
      ],
      "name": "treeUpdates",
      "outputs": [
        {
          "internalType": "string",
          "name": "updateSpecs",
          "type": "string"
        },
        {
          "internalType": "uint64",
          "name": "updateStatus",
          "type": "uint64"
        }
      ],
      "stateMutability": "view",
      "type": "function",
      "constant": true
    },
    {
      "inputs": [
        {
          "internalType": "uint256",
          "name": "",
          "type": "uint256"
        }
      ],
      "name": "trees",
      "outputs": [
        {
          "internalType": "address",
          "name": "planter",
          "type": "address"
        },
        {
          "internalType": "uint256",
          "name": "species",
          "type": "uint256"
        },
        {
          "internalType": "uint32",
          "name": "countryCode",
          "type": "uint32"
        },
        {
          "internalType": "uint32",
          "name": "saleType",
          "type": "uint32"
        },
        {
          "internalType": "uint64",
          "name": "treeStatus",
          "type": "uint64"
        },
        {
          "internalType": "uint64",
          "name": "plantDate",
          "type": "uint64"
        },
        {
          "internalType": "uint64",
          "name": "birthDate",
          "type": "uint64"
        },
        {
          "internalType": "string",
          "name": "treeSpecs",
          "type": "string"
        }
      ],
      "stateMutability": "view",
      "type": "function",
      "constant": true
    },
    {
      "inputs": [],
      "name": "trustedForwarder",
      "outputs": [
        {
          "internalType": "address",
          "name": "",
          "type": "address"
        }
      ],
      "stateMutability": "view",
      "type": "function",
      "constant": true
    },
    {
      "inputs": [
        {
          "internalType": "address",
          "name": "_accessRestrictionAddress",
          "type": "address"
        }
      ],
      "name": "initialize",
      "outputs": [],
      "stateMutability": "nonpayable",
      "type": "function"
    },
    {
      "inputs": [
        {
          "internalType": "uint8",
          "name": "_selector",
          "type": "uint8"
        },
        {
          "internalType": "address",
          "name": "_address",
          "type": "address"
        }
      ],
      "name": "setContractAddresses",
      "outputs": [],
      "stateMutability": "nonpayable",
      "type": "function"
    },
    {
      "inputs": [
        {
          "internalType": "uint256",
          "name": "_seconds",
          "type": "uint256"
        }
      ],
      "name": "setUpdateInterval",
      "outputs": [],
      "stateMutability": "nonpayable",
      "type": "function"
    },
    {
      "inputs": [
        {
          "internalType": "uint256[]",
          "name": "_treeIds",
          "type": "uint256[]"
        },
        {
          "internalType": "string[]",
          "name": "_treeSpecs",
          "type": "string[]"
        }
      ],
      "name": "listTreeBatch",
      "outputs": [],
      "stateMutability": "nonpayable",
      "type": "function"
    },
    {
      "inputs": [
        {
          "internalType": "uint256",
          "name": "_startTreeId",
          "type": "uint256"
        },
        {
          "internalType": "uint256",
          "name": "_endTreeId",
          "type": "uint256"
        }
      ],
      "name": "resetTreeStatusBatch",
      "outputs": [],
      "stateMutability": "nonpayable",
      "type": "function"
    },
    {
      "inputs": [
        {
          "internalType": "uint256",
          "name": "_treeId",
          "type": "uint256"
        },
        {
          "internalType": "address",
          "name": "_planter",
          "type": "address"
        }
      ],
      "name": "assignTree",
      "outputs": [],
      "stateMutability": "nonpayable",
      "type": "function"
    },
    {
      "inputs": [
        {
          "internalType": "uint256[]",
          "name": "_treeIds",
          "type": "uint256[]"
        },
        {
          "internalType": "address[]",
          "name": "_planters",
          "type": "address[]"
        }
      ],
      "name": "assignTreeBatch",
      "outputs": [],
      "stateMutability": "nonpayable",
      "type": "function"
    },
    {
      "inputs": [
        {
          "components": [
            {
              "internalType": "address",
              "name": "planter",
              "type": "address"
            },
            {
              "components": [
                {
                  "internalType": "uint256",
                  "name": "nonce",
                  "type": "uint256"
                },
                {
                  "internalType": "uint256",
                  "name": "treeId",
                  "type": "uint256"
                },
                {
                  "internalType": "string",
                  "name": "treeSpecs",
                  "type": "string"
                },
                {
                  "internalType": "uint64",
                  "name": "birthDate",
                  "type": "uint64"
                },
                {
                  "internalType": "uint16",
                  "name": "countryCode",
                  "type": "uint16"
                },
                {
                  "internalType": "uint8",
                  "name": "v",
                  "type": "uint8"
                },
                {
                  "internalType": "bytes32",
                  "name": "r",
                  "type": "bytes32"
                },
                {
                  "internalType": "bytes32",
                  "name": "s",
                  "type": "bytes32"
                }
              ],
              "internalType": "struct ITreeFactoryV3.PlantAssignedTreeData[]",
              "name": "data",
              "type": "tuple[]"
            }
          ],
          "internalType": "struct ITreeFactoryV3.VerifyAssignedTreeData[]",
          "name": "_verifyAssignedTreeData",
          "type": "tuple[]"
        }
      ],
      "name": "verifyAssignedTreeBatch",
      "outputs": [],
      "stateMutability": "nonpayable",
      "type": "function"
    },
    {
      "inputs": [
        {
          "internalType": "uint256",
          "name": "_nonce",
          "type": "uint256"
        },
        {
          "internalType": "address",
          "name": "_planter",
          "type": "address"
        },
        {
          "internalType": "uint256",
          "name": "_treeId",
          "type": "uint256"
        },
        {
          "internalType": "string",
          "name": "_treeSpecs",
          "type": "string"
        },
        {
          "internalType": "uint64",
          "name": "_birthDate",
          "type": "uint64"
        },
        {
          "internalType": "uint16",
          "name": "_countryCode",
          "type": "uint16"
        },
        {
          "internalType": "uint8",
          "name": "_v",
          "type": "uint8"
        },
        {
          "internalType": "bytes32",
          "name": "_r",
          "type": "bytes32"
        },
        {
          "internalType": "bytes32",
          "name": "_s",
          "type": "bytes32"
        }
      ],
      "name": "verifyAssignedTree",
      "outputs": [],
      "stateMutability": "nonpayable",
      "type": "function"
    },
    {
      "inputs": [
        {
          "components": [
            {
              "internalType": "address",
              "name": "planter",
              "type": "address"
            },
            {
              "components": [
                {
                  "internalType": "uint256",
                  "name": "nonce",
                  "type": "uint256"
                },
                {
                  "internalType": "uint256",
                  "name": "treeId",
                  "type": "uint256"
                },
                {
                  "internalType": "string",
                  "name": "treeSpecs",
                  "type": "string"
                },
                {
                  "internalType": "uint8",
                  "name": "v",
                  "type": "uint8"
                },
                {
                  "internalType": "bytes32",
                  "name": "r",
                  "type": "bytes32"
                },
                {
                  "internalType": "bytes32",
                  "name": "s",
                  "type": "bytes32"
                }
              ],
              "internalType": "struct ITreeFactoryV3.UpdateData[]",
              "name": "updateData",
              "type": "tuple[]"
            }
          ],
          "internalType": "struct ITreeFactoryV3.VerifyUpdateData[]",
          "name": "_verifyUpdateData",
          "type": "tuple[]"
        }
      ],
      "name": "verifyUpdateBatch",
      "outputs": [],
      "stateMutability": "nonpayable",
      "type": "function"
    },
    {
      "inputs": [
        {
          "internalType": "uint256",
          "name": "_nonce",
          "type": "uint256"
        },
        {
          "internalType": "address",
          "name": "_planter",
          "type": "address"
        },
        {
          "internalType": "uint256",
          "name": "_treeId",
          "type": "uint256"
        },
        {
          "internalType": "string",
          "name": "_treeSpecs",
          "type": "string"
        },
        {
          "internalType": "uint8",
          "name": "_v",
          "type": "uint8"
        },
        {
          "internalType": "bytes32",
          "name": "_r",
          "type": "bytes32"
        },
        {
          "internalType": "bytes32",
          "name": "_s",
          "type": "bytes32"
        }
      ],
      "name": "verifyUpdate",
      "outputs": [],
      "stateMutability": "nonpayable",
      "type": "function"
    },
    {
      "inputs": [
        {
          "internalType": "uint256",
          "name": "_treeId",
          "type": "uint256"
        },
        {
          "internalType": "uint32",
          "name": "_saleType",
          "type": "uint32"
        }
      ],
      "name": "manageSaleType",
      "outputs": [
        {
          "internalType": "uint32",
          "name": "",
          "type": "uint32"
        }
      ],
      "stateMutability": "nonpayable",
      "type": "function"
    },
    {
      "inputs": [
        {
          "internalType": "uint256",
          "name": "_treeId",
          "type": "uint256"
        },
        {
          "internalType": "address",
          "name": "_funder",
          "type": "address"
        }
      ],
      "name": "mintAssignedTree",
      "outputs": [],
      "stateMutability": "nonpayable",
      "type": "function"
    },
    {
      "inputs": [
        {
          "internalType": "uint256",
          "name": "_treeId",
          "type": "uint256"
        }
      ],
      "name": "resetSaleType",
      "outputs": [],
      "stateMutability": "nonpayable",
      "type": "function"
    },
    {
      "inputs": [
        {
          "internalType": "uint256",
          "name": "_startTreeId",
          "type": "uint256"
        },
        {
          "internalType": "uint256",
          "name": "_endTreeId",
          "type": "uint256"
        },
        {
          "internalType": "uint256",
          "name": "_saleType",
          "type": "uint256"
        }
      ],
      "name": "resetSaleTypeBatch",
      "outputs": [],
      "stateMutability": "nonpayable",
      "type": "function"
    },
    {
      "inputs": [
        {
          "internalType": "uint256",
          "name": "_startTreeId",
          "type": "uint256"
        },
        {
          "internalType": "uint256",
          "name": "_endTreeId",
          "type": "uint256"
        },
        {
          "internalType": "uint32",
          "name": "_saleType",
          "type": "uint32"
        }
      ],
      "name": "manageSaleTypeBatch",
      "outputs": [
        {
          "internalType": "bool",
          "name": "",
          "type": "bool"
        }
      ],
      "stateMutability": "nonpayable",
      "type": "function"
    },
    {
      "inputs": [
        {
          "internalType": "uint256",
          "name": "_lastRegualarTreeId",
          "type": "uint256"
        }
      ],
      "name": "updateLastRegualarTreeId",
      "outputs": [],
      "stateMutability": "nonpayable",
      "type": "function"
    },
    {
      "inputs": [
        {
          "components": [
            {
              "internalType": "address",
              "name": "planter",
              "type": "address"
            },
            {
              "components": [
                {
                  "internalType": "uint256",
                  "name": "nonce",
                  "type": "uint256"
                },
                {
                  "internalType": "string",
                  "name": "treeSpecs",
                  "type": "string"
                },
                {
                  "internalType": "uint64",
                  "name": "birthDate",
                  "type": "uint64"
                },
                {
                  "internalType": "uint16",
                  "name": "countryCode",
                  "type": "uint16"
                },
                {
                  "internalType": "uint8",
                  "name": "v",
                  "type": "uint8"
                },
                {
                  "internalType": "bytes32",
                  "name": "r",
                  "type": "bytes32"
                },
                {
                  "internalType": "bytes32",
                  "name": "s",
                  "type": "bytes32"
                }
              ],
              "internalType": "struct ITreeFactoryV3.PlantTreeData[]",
              "name": "data",
              "type": "tuple[]"
            }
          ],
          "internalType": "struct ITreeFactoryV3.VerifyTreeData[]",
          "name": "_verifyTreeData",
          "type": "tuple[]"
        }
      ],
      "name": "verifyTreeBatch",
      "outputs": [],
      "stateMutability": "nonpayable",
      "type": "function"
    },
    {
      "inputs": [
        {
          "internalType": "uint256",
          "name": "_nonce",
          "type": "uint256"
        },
        {
          "internalType": "address",
          "name": "_planter",
          "type": "address"
        },
        {
          "internalType": "string",
          "name": "_treeSpecs",
          "type": "string"
        },
        {
          "internalType": "uint64",
          "name": "_birthDate",
          "type": "uint64"
        },
        {
          "internalType": "uint16",
          "name": "_countryCode",
          "type": "uint16"
        },
        {
          "internalType": "uint8",
          "name": "_v",
          "type": "uint8"
        },
        {
          "internalType": "bytes32",
          "name": "_r",
          "type": "bytes32"
        },
        {
          "internalType": "bytes32",
          "name": "_s",
          "type": "bytes32"
        }
      ],
      "name": "verifyTree",
      "outputs": [],
      "stateMutability": "nonpayable",
      "type": "function"
    },
    {
      "inputs": [
        {
          "internalType": "uint256",
          "name": "_lastFundedTreeId",
          "type": "uint256"
        },
        {
          "internalType": "address",
          "name": "_funder",
          "type": "address"
        }
      ],
      "name": "mintTree",
      "outputs": [
        {
          "internalType": "uint256",
          "name": "",
          "type": "uint256"
        }
      ],
      "stateMutability": "nonpayable",
      "type": "function"
    },
    {
      "inputs": [
        {
          "internalType": "uint256",
          "name": "_treeId",
          "type": "uint256"
        },
        {
          "internalType": "address",
          "name": "_funder",
          "type": "address"
        }
      ],
      "name": "mintTreeById",
      "outputs": [],
      "stateMutability": "nonpayable",
      "type": "function"
    },
    {
      "inputs": [
        {
          "internalType": "uint64",
          "name": "_treeId",
          "type": "uint64"
        },
        {
          "internalType": "string",
          "name": "_treeSpecs",
          "type": "string"
        }
      ],
      "name": "updateTreeSpecs",
      "outputs": [],
      "stateMutability": "nonpayable",
      "type": "function"
    }
  ],
  "bytecode": "0x608060405234801561001057600080fd5b50615e8a80620000216000396000f3fe608060405234801561001057600080fd5b50600436106102ad5760003560e01c80636a58d22c1161017b5780639ebdc1d5116100d8578063c6826fc91161008c578063dc8aa57811610071578063dc8aa57814610684578063e0eb4eb91461068d578063f33da7421461069a57600080fd5b8063c6826fc91461063c578063d6762c4a1461066457600080fd5b8063b2620008116100bd578063b262000814610603578063c32619f114610616578063c4d66de81461062957600080fd5b80639ebdc1d5146105dd578063ac5064a0146105f057600080fd5b80637cf0d6191161012f57806385847a8e1161011457806385847a8e1461059757806385c19a7a146105b75780639c8446f7146105ca57600080fd5b80637cf0d6191461055e5780637da0a8771461057157600080fd5b8063713507bb11610160578063713507bb14610511578063738b11ab146105245780637a5080221461053757600080fd5b80636a58d22c146104db5780637124c683146104fe57600080fd5b80632e25d2a61161022957806348cefefd116101dd57806357eb2599116101c257806357eb2599146104a25780635f75e644146104b557806365d5a134146104c857600080fd5b806348cefefd146104685780634bd5e1bf1461048f57600080fd5b8063375b42701161020e578063375b4270146104155780633891577f146104355780633dc96d331461045557600080fd5b80632e25d2a6146103e25780632ef6dabe1461040257600080fd5b80630f513bd61161028057806321b05e591161026557806321b05e59146103a557806322347532146103ae57806329e7178b146103c157600080fd5b80630f513bd61461034d57806312cc3ab01461036057600080fd5b8063054bd2dd146102b257806308ec5615146102ec578063090b01cb146103135780630a39125614610328575b600080fd5b6102d97fbc52f7899b8a6302f0092dbdb7c7a7b97bbf1b6e2abe156c2d1cdea10797e8b581565b6040519081526020015b60405180910390f35b6102d97ffc25ba1e09e8d7d09a1b44ff75462d5e9a15444a783c4537c0e81f47ce5f138981565b610326610321366004615315565b6106ba565b005b61033b61033636600461518c565b6109fa565b6040516102e39695949392919061565e565b61032661035b3660046151d1565b610b11565b6006546103809073ffffffffffffffffffffffffffffffffffffffff1681565b60405173ffffffffffffffffffffffffffffffffffffffff90911681526020016102e3565b6102d960045481565b6102d96103bc3660046151a5565b610f2b565b6103d46103cf36600461518c565b61120c565b6040516102e39291906155d4565b600c546103809073ffffffffffffffffffffffffffffffffffffffff1681565b6103266104103660046151a5565b6112ba565b6008546103809073ffffffffffffffffffffffffffffffffffffffff1681565b6007546103809073ffffffffffffffffffffffffffffffffffffffff1681565b610326610463366004615440565b6113c9565b6102d97f04c698be4484cc8f3dad42f0424d9352c330a8e82d8ddcce6c775f3c68b8a35881565b61032661049d3660046150bc565b611532565b6103266104b03660046154c3565b611955565b6103266104c33660046150fe565b611cf8565b6103266104d636600461526e565b611ecc565b6104ee6104e93660046153e8565b612225565b60405190151581526020016102e3565b61032661050c36600461518c565b612461565b61032661051f3660046153bc565b612593565b6103266105323660046151a5565b6126ca565b61054a61054536600461518c565b6128ba565b6040516102e3989796959493929190615558565b61032661056c3660046150bc565b6129e7565b6000546103809062010000900473ffffffffffffffffffffffffffffffffffffffff1681565b6102d96105a53660046150a1565b600e6020526000908152604090205481565b6103266105c536600461518c565b612f47565b6103266105d83660046151a5565b6130ee565b6103266105eb3660046150fe565b613237565b6103266105fe36600461518c565b613407565b6103266106113660046150bc565b6134c1565b61032661062436600461539a565b6138a6565b6103266106373660046150a1565b613a5a565b61064f61064a36600461541d565b613c80565b60405163ffffffff90911681526020016102e3565b6005546103809073ffffffffffffffffffffffffffffffffffffffff1681565b6102d960035481565b6002546104ee9060ff1681565b6102d96106a836600461518c565b600d6020526000908152604090205481565b600560009054906101000a900473ffffffffffffffffffffffffffffffffffffffff1673ffffffffffffffffffffffffffffffffffffffff16634d868f986040518163ffffffff1660e01b815260040160006040518083038186803b15801561072257600080fd5b505afa158015610736573d6000803e3d6000fd5b50506005546040517f5f7f84c700000000000000000000000000000000000000000000000000000000815233600482015273ffffffffffffffffffffffffffffffffffffffff9091169250635f7f84c7915060240160006040518083038186803b1580156107a357600080fd5b505afa1580156107b7573d6000803e3d6000fd5b5050505073ffffffffffffffffffffffffffffffffffffffff86166000908152600e6020526040902054871161084e576040517f08c379a000000000000000000000000000000000000000000000000000000000815260206004820152601a60248201527f706c616e746572206e6f6e636520697320696e636f727265637400000000000060448201526064015b60405180910390fd5b6109be610954604080518082018252601081527f547265656a65722050726f746f636f6c0000000000000000000000000000000060209182015281518083018352600181527f31000000000000000000000000000000000000000000000000000000000000009082015281517f8b73c3c69bb8fe3d512ecc4cf759cc79239f7b179b0ffacaa9a75d522b39400f818301527fe1ae4c5ea70ead216fb915131cbfdb36ed856f7318d956915d0dba5b4c4a7551818401527fc89efdaa54c0f20c7adf612882df0950f5a951637e0307cdcb4c672f298b8bc660608201524660808201523060a0808301919091528351808303909101815260c0909101909252815191012090565b8551602080880191909120604080517f04c698be4484cc8f3dad42f0424d9352c330a8e82d8ddcce6c775f3c68b8a3589381019390935282018b905260608201899052608082015260a0016040516020818303038152906040528051906020012088868686613e6a565b6109c9858786613fc4565b50505073ffffffffffffffffffffffffffffffffffffffff9092166000908152600e60205260409020929092555050565b600b6020526000908152604090208054600182015460028301805467ffffffffffffffff80851695680100000000000000008604821695700100000000000000000000000000000000810483169578010000000000000000000000000000000000000000000000009091049092169373ffffffffffffffffffffffffffffffffffffffff90921692909190610a8e90615d3a565b80601f0160208091040260200160405190810160405280929190818152602001828054610aba90615d3a565b8015610b075780601f10610adc57610100808354040283529160200191610b07565b820191906000526020600020905b815481529060010190602001808311610aea57829003601f168201915b5050505050905086565b600560009054906101000a900473ffffffffffffffffffffffffffffffffffffffff1673ffffffffffffffffffffffffffffffffffffffff16634d868f986040518163ffffffff1660e01b815260040160006040518083038186803b158015610b7957600080fd5b505afa158015610b8d573d6000803e3d6000fd5b50506005546040517f5f7f84c700000000000000000000000000000000000000000000000000000000815233600482015273ffffffffffffffffffffffffffffffffffffffff9091169250635f7f84c7915060240160006040518083038186803b158015610bfa57600080fd5b505afa158015610c0e573d6000803e3d6000fd5b50506008546040517fa1f74f0e00000000000000000000000000000000000000000000000000000000815273ffffffffffffffffffffffffffffffffffffffff8b81166004830152909116925063a1f74f0e9150602401602060405180830381600087803b158015610c7f57600080fd5b505af1158015610c93573d6000803e3d6000fd5b505050506040513d601f19601f82011682018060405250810190610cb7919061516a565b610cc057600080fd5b73ffffffffffffffffffffffffffffffffffffffff87166000908152600e60205260409020548811610d4e576040517f08c379a000000000000000000000000000000000000000000000000000000000815260206004820152601a60248201527f706c616e746572206e6f6e636520697320696e636f72726563740000000000006044820152606401610845565b6000610e53604080518082018252601081527f547265656a65722050726f746f636f6c0000000000000000000000000000000060209182015281518083018352600181527f31000000000000000000000000000000000000000000000000000000000000009082015281517f8b73c3c69bb8fe3d512ecc4cf759cc79239f7b179b0ffacaa9a75d522b39400f818301527fe1ae4c5ea70ead216fb915131cbfdb36ed856f7318d956915d0dba5b4c4a7551818401527fc89efdaa54c0f20c7adf612882df0950f5a951637e0307cdcb4c672f298b8bc660608201524660808201523060a0808301919091528351808303909101815260c0909101909252815191012090565b87516020808a0191909120604080517ffc25ba1e09e8d7d09a1b44ff75462d5e9a15444a783c4537c0e81f47ce5f13899381019390935282018c9052606082015267ffffffffffffffff8816608082015261ffff871660a0820152909150610ed990829060c001604051602081830303815290604052805190602001208a878787613e6a565b610ef56003546001610eeb919061586c565b86888a8c8e614404565b60035550505073ffffffffffffffffffffffffffffffffffffffff9094166000908152600e602052604090209490945550505050565b6005546040517febe6a6f300000000000000000000000000000000000000000000000000000000815233600482015260009173ffffffffffffffffffffffffffffffffffffffff169063ebe6a6f39060240160006040518083038186803b158015610f9557600080fd5b505afa158015610fa9573d6000803e3d6000fd5b505050506000836001610fbc919061586c565b6000818152600960205260408120600201549192509068010000000000000000900467ffffffffffffffff161580156110125750600082815260096020526040902060020154640100000000900463ffffffff16155b80611070575060008281526009602052604090206002015460036801000000000000000090910467ffffffffffffffff16118015611070575060008281526009602052604090206002015463ffffffff640100000000909104166004145b90505b8061113d5761108382600161586c565b60008181526009602052604090206002015490925068010000000000000000900467ffffffffffffffff161580156110d85750600082815260096020526040902060020154640100000000900463ffffffff16155b80611136575060008281526009602052604090206002015460036801000000000000000090910467ffffffffffffffff16118015611136575060008281526009602052604090206002015463ffffffff640100000000909104166004145b9050611073565b6000828152600960205260409081902060020180547fffffffffffffffffffffffffffffffffffffffffffffffff00000000ffffffff16905560065490517f40c10f1900000000000000000000000000000000000000000000000000000000815273ffffffffffffffffffffffffffffffffffffffff868116600483015260248201859052909116906340c10f1990604401600060405180830381600087803b1580156111e957600080fd5b505af11580156111fd573d6000803e3d6000fd5b50939450505050505b92915050565b600a6020526000908152604090208054819061122790615d3a565b80601f016020809104026020016040519081016040528092919081815260200182805461125390615d3a565b80156112a05780601f10611275576101008083540402835291602001916112a0565b820191906000526020600020905b81548152906001019060200180831161128357829003601f168201915b5050506001909301549192505067ffffffffffffffff1682565b600560009054906101000a900473ffffffffffffffffffffffffffffffffffffffff1673ffffffffffffffffffffffffffffffffffffffff16634d868f986040518163ffffffff1660e01b815260040160006040518083038186803b15801561132257600080fd5b505afa158015611336573d6000803e3d6000fd5b50506005546040517fc4d2a31b00000000000000000000000000000000000000000000000000000000815233600482015273ffffffffffffffffffffffffffffffffffffffff909116925063c4d2a31b915060240160006040518083038186803b1580156113a357600080fd5b505afa1580156113b7573d6000803e3d6000fd5b505050506113c582826146b1565b5050565b600560009054906101000a900473ffffffffffffffffffffffffffffffffffffffff1673ffffffffffffffffffffffffffffffffffffffff16634d868f986040518163ffffffff1660e01b815260040160006040518083038186803b15801561143157600080fd5b505afa158015611445573d6000803e3d6000fd5b50506005546040517fd449b6ac00000000000000000000000000000000000000000000000000000000815233600482015273ffffffffffffffffffffffffffffffffffffffff909116925063d449b6ac915060240160006040518083038186803b1580156114b257600080fd5b505afa1580156114c6573d6000803e3d6000fd5b50505067ffffffffffffffff841660009081526009602052604090206114f191506003018383614e28565b507fe057d65b6e89ca5556afee78d44476007a26185cff8218bc9e2d10f5bb0d6f6b83838360405161152593929190615600565b60405180910390a1505050565b600560009054906101000a900473ffffffffffffffffffffffffffffffffffffffff1673ffffffffffffffffffffffffffffffffffffffff16634d868f986040518163ffffffff1660e01b815260040160006040518083038186803b15801561159a57600080fd5b505afa1580156115ae573d6000803e3d6000fd5b50506005546040517f5f7f84c700000000000000000000000000000000000000000000000000000000815233600482015273ffffffffffffffffffffffffffffffffffffffff9091169250635f7f84c7915060240160006040518083038186803b15801561161b57600080fd5b505afa15801561162f573d6000803e3d6000fd5b505050506000611738604080518082018252601081527f547265656a65722050726f746f636f6c0000000000000000000000000000000060209182015281518083018352600181527f31000000000000000000000000000000000000000000000000000000000000009082015281517f8b73c3c69bb8fe3d512ecc4cf759cc79239f7b179b0ffacaa9a75d522b39400f818301527fe1ae4c5ea70ead216fb915131cbfdb36ed856f7318d956915d0dba5b4c4a7551818401527fc89efdaa54c0f20c7adf612882df0950f5a951637e0307cdcb4c672f298b8bc660608201524660808201523060a0808301919091528351808303909101815260c0909101909252815191012090565b905060005b8281101561194f57600084848381811061175957611759615df6565b905060200281019061176b9190615728565b61177490615906565b805173ffffffffffffffffffffffffffffffffffffffff166000908152600e60205260408120549192505b82602001515181101561191f576000836020015182815181106117c4576117c4615df6565b60200260200101519050611888867fbc52f7899b8a6302f0092dbdb7c7a7b97bbf1b6e2abe156c2d1cdea10797e8b583600001518460200151856040015180519060200120866060015187608001516040516020016118599695949392919095865260208601949094526040850192909252606084015267ffffffffffffffff16608083015261ffff1660a082015260c00190565b6040516020818303038152906040528051906020012086600001518460a001518560c001518660e00151613e6a565b805183106118f2576040517f08c379a000000000000000000000000000000000000000000000000000000000815260206004820152601a60248201527f706c616e746572206e6f6e636520697320696e636f72726563740000000000006044820152606401610845565b805160208201518551604084015160608501516080860151949750611916946148b9565b5060010161179f565b50905173ffffffffffffffffffffffffffffffffffffffff166000908152600e602052604090205560010161173d565b50505050565b6005546040517f8413ec1400000000000000000000000000000000000000000000000000000000815233600482015273ffffffffffffffffffffffffffffffffffffffff90911690638413ec149060240160006040518083038186803b1580156119be57600080fd5b505afa1580156119d2573d6000803e3d6000fd5b50839250505073ffffffffffffffffffffffffffffffffffffffff8116611a55576040517f08c379a000000000000000000000000000000000000000000000000000000000815260206004820152600f60248201527f496e76616c6964206164647265737300000000000000000000000000000000006044820152606401610845565b60ff8316611b335760008290508073ffffffffffffffffffffffffffffffffffffffff1663349904da6040518163ffffffff1660e01b815260040160206040518083038186803b158015611aa857600080fd5b505afa158015611abc573d6000803e3d6000fd5b505050506040513d601f19601f82011682018060405250810190611ae0919061516a565b611ae957600080fd5b600780547fffffffffffffffffffffffff00000000000000000000000000000000000000001673ffffffffffffffffffffffffffffffffffffffff92909216919091179055505050565b8260ff1660011415611c155760008290508073ffffffffffffffffffffffffffffffffffffffff166303dc8deb6040518163ffffffff1660e01b815260040160206040518083038186803b158015611b8a57600080fd5b505afa158015611b9e573d6000803e3d6000fd5b505050506040513d601f19601f82011682018060405250810190611bc2919061516a565b611bcb57600080fd5b600880547fffffffffffffffffffffffff00000000000000000000000000000000000000001673ffffffffffffffffffffffffffffffffffffffff92909216919091179055505050565b8260ff1660021415611cf35760008290508073ffffffffffffffffffffffffffffffffffffffff166337b9fd776040518163ffffffff1660e01b815260040160206040518083038186803b158015611c6c57600080fd5b505afa158015611c80573d6000803e3d6000fd5b505050506040513d601f19601f82011682018060405250810190611ca4919061516a565b611cad57600080fd5b600680547fffffffffffffffffffffffff00000000000000000000000000000000000000001673ffffffffffffffffffffffffffffffffffffffff929092169190911790555b505050565b600560009054906101000a900473ffffffffffffffffffffffffffffffffffffffff1673ffffffffffffffffffffffffffffffffffffffff16634d868f986040518163ffffffff1660e01b815260040160006040518083038186803b158015611d6057600080fd5b505afa158015611d74573d6000803e3d6000fd5b50506005546040517fc4d2a31b00000000000000000000000000000000000000000000000000000000815233600482015273ffffffffffffffffffffffffffffffffffffffff909116925063c4d2a31b915060240160006040518083038186803b158015611de157600080fd5b505afa158015611df5573d6000803e3d6000fd5b5050508382149050611e63576040517f08c379a000000000000000000000000000000000000000000000000000000000815260206004820152600e60248201527f696e76616c696420696e707574730000000000000000000000000000000000006044820152606401610845565b60005b83811015611ec557611eb3858583818110611e8357611e83615df6565b90506020020135848484818110611e9c57611e9c615df6565b9050602002810190611eae91906156c3565b614be7565b80611ebd81615d8e565b915050611e66565b5050505050565b600560009054906101000a900473ffffffffffffffffffffffffffffffffffffffff1673ffffffffffffffffffffffffffffffffffffffff16634d868f986040518163ffffffff1660e01b815260040160006040518083038186803b158015611f3457600080fd5b505afa158015611f48573d6000803e3d6000fd5b50506005546040517f5f7f84c700000000000000000000000000000000000000000000000000000000815233600482015273ffffffffffffffffffffffffffffffffffffffff9091169250635f7f84c7915060240160006040518083038186803b158015611fb557600080fd5b505afa158015611fc9573d6000803e3d6000fd5b5050505073ffffffffffffffffffffffffffffffffffffffff88166000908152600e6020526040902054891161205b576040517f08c379a000000000000000000000000000000000000000000000000000000000815260206004820152601a60248201527f706c616e746572206e6f6e636520697320696e636f72726563740000000000006044820152606401610845565b6121e5612161604080518082018252601081527f547265656a65722050726f746f636f6c0000000000000000000000000000000060209182015281518083018352600181527f31000000000000000000000000000000000000000000000000000000000000009082015281517f8b73c3c69bb8fe3d512ecc4cf759cc79239f7b179b0ffacaa9a75d522b39400f818301527fe1ae4c5ea70ead216fb915131cbfdb36ed856f7318d956915d0dba5b4c4a7551818401527fc89efdaa54c0f20c7adf612882df0950f5a951637e0307cdcb4c672f298b8bc660608201524660808201523060a0808301919091528351808303909101815260c0909101909252815191012090565b87516020808a0191909120604080517fbc52f7899b8a6302f0092dbdb7c7a7b97bbf1b6e2abe156c2d1cdea10797e8b59381019390935282018d9052606082018b9052608082015267ffffffffffffffff881660a082015261ffff871660c082015260e001604051602081830303815290604052805190602001208a868686613e6a565b6121f287898888886148b9565b50505073ffffffffffffffffffffffffffffffffffffffff9094166000908152600e602052604090209490945550505050565b6005546040517febe6a6f300000000000000000000000000000000000000000000000000000000815233600482015260009173ffffffffffffffffffffffffffffffffffffffff169063ebe6a6f39060240160006040518083038186803b15801561228f57600080fd5b505afa1580156122a3573d6000803e3d6000fd5b5086925050505b8381101561239d57600081815260096020526040902060020154640100000000900463ffffffff1615158061237c57506006546040517f4f558e790000000000000000000000000000000000000000000000000000000081526004810183905273ffffffffffffffffffffffffffffffffffffffff90911690634f558e799060240160206040518083038186803b15801561234457600080fd5b505afa158015612358573d6000803e3d6000fd5b505050506040513d601f19601f8201168201806040525081019061237c919061516a565b1561238b57600091505061245a565b8061239581615d8e565b9150506122aa565b50835b838110156124545760008181526009602052604090206002810180547fffffffffffffffffffffffffffffffffffffffffffffffff00000000ffffffff1664010000000063ffffffff871602179081905568010000000000000000900467ffffffffffffffff16612441576002810180547fffffffffffffffffffffffffffffffff0000000000000000ffffffffffffffff16680200000000000000001790555b508061244c81615d8e565b9150506123a0565b50600190505b9392505050565b600560009054906101000a900473ffffffffffffffffffffffffffffffffffffffff1673ffffffffffffffffffffffffffffffffffffffff16634d868f986040518163ffffffff1660e01b815260040160006040518083038186803b1580156124c957600080fd5b505afa1580156124dd573d6000803e3d6000fd5b50506005546040517fc4d2a31b00000000000000000000000000000000000000000000000000000000815233600482015273ffffffffffffffffffffffffffffffffffffffff909116925063c4d2a31b915060240160006040518083038186803b15801561254a57600080fd5b505afa15801561255e573d6000803e3d6000fd5b5050506004829055506040517f724a8c86a27543b6d373c576963d00ead954c78a72015a1929b5757edeaa06c890600090a150565b6005546040517febe6a6f300000000000000000000000000000000000000000000000000000000815233600482015273ffffffffffffffffffffffffffffffffffffffff9091169063ebe6a6f39060240160006040518083038186803b1580156125fc57600080fd5b505afa158015612610573d6000803e3d6000fd5b5085925050505b8281101561194f5760008181526009602052604090206002810154640100000000900463ffffffff168314156126b757600281810180547fffffffffffffffffffffffffffffffffffffffffffffffff00000000ffffffff169081905568010000000000000000900467ffffffffffffffff1614156126b75780547fffffffffffffffffffffffff00000000000000000000000000000000000000001681555b50806126c281615d8e565b915050612617565b6005546040517febe6a6f300000000000000000000000000000000000000000000000000000000815233600482015273ffffffffffffffffffffffffffffffffffffffff9091169063ebe6a6f39060240160006040518083038186803b15801561273357600080fd5b505afa158015612747573d6000803e3d6000fd5b5050506000838152600960205260409020600281015490915060036801000000000000000090910467ffffffffffffffff161180156127995750600281015463ffffffff640100000000909104166004145b6127ff576040517f08c379a000000000000000000000000000000000000000000000000000000000815260206004820152601060248201527f54726565206e6f7420706c616e746564000000000000000000000000000000006044820152606401610845565b6002810180547fffffffffffffffffffffffffffffffffffffffffffffffff00000000ffffffff1690556006546040517f40c10f1900000000000000000000000000000000000000000000000000000000815273ffffffffffffffffffffffffffffffffffffffff848116600483015260248201869052909116906340c10f1990604401600060405180830381600087803b15801561289d57600080fd5b505af11580156128b1573d6000803e3d6000fd5b50505050505050565b600960205260009081526040902080546001820154600283015460038401805473ffffffffffffffffffffffffffffffffffffffff90941694929363ffffffff8084169464010000000085049091169367ffffffffffffffff68010000000000000000820481169470010000000000000000000000000000000083048216947801000000000000000000000000000000000000000000000000909304909116929161296490615d3a565b80601f016020809104026020016040519081016040528092919081815260200182805461299090615d3a565b80156129dd5780601f106129b2576101008083540402835291602001916129dd565b820191906000526020600020905b8154815290600101906020018083116129c057829003601f168201915b5050505050905088565b600560009054906101000a900473ffffffffffffffffffffffffffffffffffffffff1673ffffffffffffffffffffffffffffffffffffffff16634d868f986040518163ffffffff1660e01b815260040160006040518083038186803b158015612a4f57600080fd5b505afa158015612a63573d6000803e3d6000fd5b50506005546040517f5f7f84c700000000000000000000000000000000000000000000000000000000815233600482015273ffffffffffffffffffffffffffffffffffffffff9091169250635f7f84c7915060240160006040518083038186803b158015612ad057600080fd5b505afa158015612ae4573d6000803e3d6000fd5b5050600354915060009050612bf2604080518082018252601081527f547265656a65722050726f746f636f6c0000000000000000000000000000000060209182015281518083018352600181527f31000000000000000000000000000000000000000000000000000000000000009082015281517f8b73c3c69bb8fe3d512ecc4cf759cc79239f7b179b0ffacaa9a75d522b39400f818301527fe1ae4c5ea70ead216fb915131cbfdb36ed856f7318d956915d0dba5b4c4a7551818401527fc89efdaa54c0f20c7adf612882df0950f5a951637e0307cdcb4c672f298b8bc660608201524660808201523060a0808301919091528351808303909101815260c0909101909252815191012090565b905060005b83811015612f3e576000858583818110612c1357612c13615df6565b9050602002810190612c259190615728565b612c2e90615a8f565b600854815160208301515192935073ffffffffffffffffffffffffffffffffffffffff90911691638ff242bb9190612c6590614cf4565b6040517fffffffff0000000000000000000000000000000000000000000000000000000060e085901b16815273ffffffffffffffffffffffffffffffffffffffff909216600483015263ffffffff166024820152604401602060405180830381600087803b158015612cd657600080fd5b505af1158015612cea573d6000803e3d6000fd5b505050506040513d601f19601f82011682018060405250810190612d0e919061516a565b612d74576040517f08c379a000000000000000000000000000000000000000000000000000000000815260206004820152601160248201527f5065726d697373696f6e2064656e6965640000000000000000000000000000006044820152606401610845565b805173ffffffffffffffffffffffffffffffffffffffff166000908152600e6020526040812054905b826020015151811015612f0e57600083602001518281518110612dc257612dc2615df6565b6020026020010151905080600001518310612e39576040517f08c379a000000000000000000000000000000000000000000000000000000000815260206004820152601a60248201527f706c616e746572206e6f6e636520697320696e636f72726563740000000000006044820152606401610845565b805160208083015180519082012060408085015160608087015183517ffc25ba1e09e8d7d09a1b44ff75462d5e9a15444a783c4537c0e81f47ce5f13899681019690965292850186905284019290925267ffffffffffffffff909116608083015261ffff1660a0820152909350612ede90879060c00160405160208183030381529060405280519060200120866000015184608001518560a001518660c00151613e6a565b612f038760010182606001518360400151846020015188600001518660000151614404565b965050600101612d9d565b50905173ffffffffffffffffffffffffffffffffffffffff166000908152600e6020526040902055600101612bf7565b50506003555050565b600560009054906101000a900473ffffffffffffffffffffffffffffffffffffffff1673ffffffffffffffffffffffffffffffffffffffff16634d868f986040518163ffffffff1660e01b815260040160006040518083038186803b158015612faf57600080fd5b505afa158015612fc3573d6000803e3d6000fd5b50506005546040517fc4d2a31b00000000000000000000000000000000000000000000000000000000815233600482015273ffffffffffffffffffffffffffffffffffffffff909116925063c4d2a31b915060240160006040518083038186803b15801561303057600080fd5b505afa158015613044573d6000803e3d6000fd5b5050505060035481116130b3576040517f08c379a000000000000000000000000000000000000000000000000000000000815260206004820152601a60248201527f496e76616c6964206c61737452656775616c61725472656549640000000000006044820152606401610845565b60038190556040518181527fa9773843a83608e5980349ca85f4c0f3ec08f968c1e7544fde96381c7dd0cdf09060200160405180910390a150565b6005546040517febe6a6f300000000000000000000000000000000000000000000000000000000815233600482015273ffffffffffffffffffffffffffffffffffffffff9091169063ebe6a6f39060240160006040518083038186803b15801561315757600080fd5b505afa15801561316b573d6000803e3d6000fd5b5050506000838152600960205260409081902060020180547fffffffffffffffffffffffffffffffffffffffffffffffff00000000ffffffff16905560065490517f40c10f1900000000000000000000000000000000000000000000000000000000815273ffffffffffffffffffffffffffffffffffffffff84811660048301526024820186905290911691506340c10f1990604401600060405180830381600087803b15801561321b57600080fd5b505af115801561322f573d6000803e3d6000fd5b505050505050565b600560009054906101000a900473ffffffffffffffffffffffffffffffffffffffff1673ffffffffffffffffffffffffffffffffffffffff16634d868f986040518163ffffffff1660e01b815260040160006040518083038186803b15801561329f57600080fd5b505afa1580156132b3573d6000803e3d6000fd5b50506005546040517fc4d2a31b00000000000000000000000000000000000000000000000000000000815233600482015273ffffffffffffffffffffffffffffffffffffffff909116925063c4d2a31b915060240160006040518083038186803b15801561332057600080fd5b505afa158015613334573d6000803e3d6000fd5b50505083821490506133a2576040517f08c379a000000000000000000000000000000000000000000000000000000000815260206004820152600e60248201527f696e76616c696420696e707574730000000000000000000000000000000000006044820152606401610845565b60005b83811015611ec5576133f58585838181106133c2576133c2615df6565b905060200201358484848181106133db576133db615df6565b90506020020160208101906133f091906150a1565b6146b1565b806133ff81615d8e565b9150506133a5565b6005546040517febe6a6f300000000000000000000000000000000000000000000000000000000815233600482015273ffffffffffffffffffffffffffffffffffffffff9091169063ebe6a6f39060240160006040518083038186803b15801561347057600080fd5b505afa158015613484573d6000803e3d6000fd5b50505060009182525060096020526040902060020180547fffffffffffffffffffffffffffffffffffffffffffffffff00000000ffffffff169055565b600560009054906101000a900473ffffffffffffffffffffffffffffffffffffffff1673ffffffffffffffffffffffffffffffffffffffff16634d868f986040518163ffffffff1660e01b815260040160006040518083038186803b15801561352957600080fd5b505afa15801561353d573d6000803e3d6000fd5b50506005546040517f5f7f84c700000000000000000000000000000000000000000000000000000000815233600482015273ffffffffffffffffffffffffffffffffffffffff9091169250635f7f84c7915060240160006040518083038186803b1580156135aa57600080fd5b505afa1580156135be573d6000803e3d6000fd5b5050505060006136c7604080518082018252601081527f547265656a65722050726f746f636f6c0000000000000000000000000000000060209182015281518083018352600181527f31000000000000000000000000000000000000000000000000000000000000009082015281517f8b73c3c69bb8fe3d512ecc4cf759cc79239f7b179b0ffacaa9a75d522b39400f818301527fe1ae4c5ea70ead216fb915131cbfdb36ed856f7318d956915d0dba5b4c4a7551818401527fc89efdaa54c0f20c7adf612882df0950f5a951637e0307cdcb4c672f298b8bc660608201524660808201523060a0808301919091528351808303909101815260c0909101909252815191012090565b905060005b8281101561194f5760008484838181106136e8576136e8615df6565b90506020028101906136fa9190615728565b61370390615bf0565b805173ffffffffffffffffffffffffffffffffffffffff166000908152600e60205260408120549192505b8260200151518110156138765760008360200151828151811061375357613753615df6565b60200260200101519050806000015183106137ca576040517f08c379a000000000000000000000000000000000000000000000000000000000815260206004820152601a60248201527f706c616e746572206e6f6e636520697320696e636f72726563740000000000006044820152606401610845565b805160208083015160408085015180519084012081517f04c698be4484cc8f3dad42f0424d9352c330a8e82d8ddcce6c775f3c68b8a358948101949094529083018490526060830191909152608082015290935061385690879060a001604051602081830303815290604052805190602001208660000151846060015185608001518660a00151613e6a565b61386d816020015185600001518360400151613fc4565b5060010161372e565b50905173ffffffffffffffffffffffffffffffffffffffff166000908152600e60205260409020556001016136cc565b600560009054906101000a900473ffffffffffffffffffffffffffffffffffffffff1673ffffffffffffffffffffffffffffffffffffffff16634d868f986040518163ffffffff1660e01b815260040160006040518083038186803b15801561390e57600080fd5b505afa158015613922573d6000803e3d6000fd5b50506005546040517fc4d2a31b00000000000000000000000000000000000000000000000000000000815233600482015273ffffffffffffffffffffffffffffffffffffffff909116925063c4d2a31b915060240160006040518083038186803b15801561398f57600080fd5b505afa1580156139a3573d6000803e3d6000fd5b5084925050505b81811015613a2c57600081815260096020526040902060029081015468010000000000000000900467ffffffffffffffff161415613a1a57600081815260096020526040902060020180547fffffffffffffffffffffffffffffffff0000000000000000ffffffffffffffff1690555b80613a2481615d8e565b9150506139aa565b506040517fbde8f07343ad7e0051caea2b06edc3a63dadb6d14f0d769b7d9e0295684bfed490600090a15050565b600054610100900460ff16613a755760005460ff1615613a79565b303b155b613b05576040517f08c379a000000000000000000000000000000000000000000000000000000000815260206004820152602e60248201527f496e697469616c697a61626c653a20636f6e747261637420697320616c72656160448201527f647920696e697469616c697a65640000000000000000000000000000000000006064820152608401610845565b600054610100900460ff16158015613b4457600080547fffffffffffffffffffffffffffffffffffffffffffffffffffffffffffff0000166101011790555b60008290508073ffffffffffffffffffffffffffffffffffffffff1663ba84fd696040518163ffffffff1660e01b815260040160206040518083038186803b158015613b8f57600080fd5b505afa158015613ba3573d6000803e3d6000fd5b505050506040513d601f19601f82011682018060405250810190613bc7919061516a565b613bd057600080fd5b600280547fffffffffffffffffffffffffffffffffffffffffffffffffffffffffffffff001660011790556005805473ffffffffffffffffffffffffffffffffffffffff9092167fffffffffffffffffffffffff000000000000000000000000000000000000000090921691909117905561271060035562093a8060045580156113c557600080547fffffffffffffffffffffffffffffffffffffffffffffffffffffffffffff00ff1690555050565b6005546040517febe6a6f300000000000000000000000000000000000000000000000000000000815233600482015260009173ffffffffffffffffffffffffffffffffffffffff169063ebe6a6f39060240160006040518083038186803b158015613cea57600080fd5b505afa158015613cfe573d6000803e3d6000fd5b50506006546040517f4f558e790000000000000000000000000000000000000000000000000000000081526004810187905273ffffffffffffffffffffffffffffffffffffffff9091169250634f558e79915060240160206040518083038186803b158015613d6c57600080fd5b505afa158015613d80573d6000803e3d6000fd5b505050506040513d601f19601f82011682018060405250810190613da4919061516a565b15613db157506001611206565b60008381526009602052604090206002810154640100000000900463ffffffff1680613e62576002820180547fffffffffffffffffffffffffffffffffffffffffffffffff00000000ffffffff1664010000000063ffffffff871602179081905568010000000000000000900467ffffffffffffffff16613e62576002820180547fffffffffffffffffffffffffffffffff0000000000000000ffffffffffffffff16680200000000000000001790555b949350505050565b604080517f190100000000000000000000000000000000000000000000000000000000000060208083019190915260228201899052604280830189905283518084039091018152606290920190925280519101206000906040805160008082526020820180845284905260ff88169282019290925260608101869052608081018590529192509060019060a0016020604051602081039080840390855afa158015613f19573d6000803e3d6000fd5b5050506020604051035190508573ffffffffffffffffffffffffffffffffffffffff168173ffffffffffffffffffffffffffffffffffffffff1614613fba576040517f08c379a000000000000000000000000000000000000000000000000000000000815260206004820152601e60248201527f54726565466163746f72793a20696e76616c6964207369676e617475726500006044820152606401610845565b5050505050505050565b6000838152600960205260409020805473ffffffffffffffffffffffffffffffffffffffff848116911614614055576040517f08c379a000000000000000000000000000000000000000000000000000000000815260206004820152600e60248201527f4e6f74206f776e656420747265650000000000000000000000000000000000006044820152606401610845565b600281015460036801000000000000000090910467ffffffffffffffff16116140da576040517f08c379a000000000000000000000000000000000000000000000000000000000815260206004820152601060248201527f54726565206e6f7420706c616e746564000000000000000000000000000000006044820152606401610845565b60045460028201546141049068010000000000000000900467ffffffffffffffff16610e106158bf565b67ffffffffffffffff16614118919061586c565b60028201546141459190700100000000000000000000000000000000900467ffffffffffffffff1661586c565b4210156141ae576040517f08c379a000000000000000000000000000000000000000000000000000000000815260206004820152600c60248201527f4561726c792075706461746500000000000000000000000000000000000000006044820152606401610845565b60028101546000906141f590610e10906141e690700100000000000000000000000000000000900467ffffffffffffffff16426158ef565b6141f09190615884565b614cf4565b600283015490915068010000000000000000900467ffffffffffffffff1663ffffffff8216111561425e576002820180547fffffffffffffffffffffffffffffffff0000000000000000ffffffffffffffff1663ffffffff831668010000000000000000021790555b82516142739060038401906020860190614ec6565b506006546040517f4f558e790000000000000000000000000000000000000000000000000000000081526004810187905273ffffffffffffffffffffffffffffffffffffffff90911690634f558e799060240160206040518083038186803b1580156142de57600080fd5b505afa1580156142f2573d6000803e3d6000fd5b505050506040513d601f19601f82011682018060405250810190614316919061516a565b156143ca57600754825460028401546040517fc0ba4aff0000000000000000000000000000000000000000000000000000000081526004810189905273ffffffffffffffffffffffffffffffffffffffff92831660248201526801000000000000000090910467ffffffffffffffff16604482015291169063c0ba4aff90606401600060405180830381600087803b1580156143b157600080fd5b505af11580156143c5573d6000803e3d6000fd5b505050505b6040518581527f50dc150da4a25245987f08b8287e8418fa686f9fa829464e548245dff47345e19060200160405180910390a15050505050565b60005b60008781526009602052604090206002015468010000000000000000900467ffffffffffffffff161580156144595750600087815260096020526040902060020154640100000000900463ffffffff16155b61446f5761446860018861586c565b9650614407565b600087815260096020526040902061448642614d8e565b60028201805461ffff8a166fffffffffffffffffffffffff0000000090911670010000000000000000000000000000000067ffffffffffffffff9485160277ffffffffffffffffffffffffffffffffffffffff00000000161717780100000000000000000000000000000000000000000000000092891692909202919091179055845161451c9060038301906020880190614ec6565b5080547fffffffffffffffffffffffff00000000000000000000000000000000000000001673ffffffffffffffffffffffffffffffffffffffff8581169190911782556002820180547fffffffffffffffffffffffffffffffff0000000000000000ffffffffffffffff16680400000000000000001790556006546040517f4f558e79000000000000000000000000000000000000000000000000000000008152600481018b9052911690634f558e799060240160206040518083038186803b1580156145e857600080fd5b505afa1580156145fc573d6000803e3d6000fd5b505050506040513d601f19601f82011682018060405250810190614620919061516a565b614656576002810180547fffffffffffffffffffffffffffffffffffffffffffffffff00000000ffffffff166404000000001790555b6040805173ffffffffffffffffffffffffffffffffffffffff86168152602081018590527fc8d1c35bf887df6591a832b9cf5d4b2c5bbbfb36bed9d379daad85482a5fc5ae910160405180910390a150959695505050505050565b600082815260096020526040902060028082015468010000000000000000900467ffffffffffffffff1614614742576040517f08c379a000000000000000000000000000000000000000000000000000000000815260206004820152600c60248201527f496e76616c6964207472656500000000000000000000000000000000000000006044820152606401610845565b6008546040517f3d9b75df00000000000000000000000000000000000000000000000000000000815273ffffffffffffffffffffffffffffffffffffffff848116600483015290911690633d9b75df9060240160206040518083038186803b1580156147ad57600080fd5b505afa1580156147c1573d6000803e3d6000fd5b505050506040513d601f19601f820116820180604052508101906147e5919061516a565b61484b576040517f08c379a000000000000000000000000000000000000000000000000000000000815260206004820152601360248201527f4e6f7420616c6c6f77656420706c616e746572000000000000000000000000006044820152606401610845565b80547fffffffffffffffffffffffff00000000000000000000000000000000000000001673ffffffffffffffffffffffffffffffffffffffff83161781556040518381527f5569e20f761862546a9a892a1fd4508e29978c6a2673afb7ec47675e8cf6b46590602001611525565b600085815260096020526040902060028082015468010000000000000000900467ffffffffffffffff161461494a576040517f08c379a000000000000000000000000000000000000000000000000000000000815260206004820152601360248201527f496e76616c6964207472656520737461747573000000000000000000000000006044820152606401610845565b60085481546040517f0649d93000000000000000000000000000000000000000000000000000000000815273ffffffffffffffffffffffffffffffffffffffff88811660048301529182166024820152911690630649d93090604401602060405180830381600087803b1580156149c057600080fd5b505af11580156149d4573d6000803e3d6000fd5b505050506040513d601f19601f820116820180604052508101906149f8919061516a565b614a5e576040517f08c379a000000000000000000000000000000000000000000000000000000000815260206004820152601160248201527f5065726d697373696f6e2064656e6965640000000000000000000000000000006044820152606401610845565b805473ffffffffffffffffffffffffffffffffffffffff868116911614614abe5780547fffffffffffffffffffffffff00000000000000000000000000000000000000001673ffffffffffffffffffffffffffffffffffffffff86161781555b60028101805467ffffffffffffffff851678010000000000000000000000000000000000000000000000000277ffffffffffffffffffffffffffffffffffffffff0000000090911661ffff851617179055614b1842614d8e565b6002820180547fffffffffffffffff00000000000000000000000000000000ffffffffffffffff1670010000000000000000000000000000000067ffffffffffffffff93909316929092027fffffffffffffffffffffffffffffffff0000000000000000ffffffffffffffff1691909117680400000000000000001790558351614bab9060038301906020870190614ec6565b506040518681527f84877ccbface2d9faaae31e1d836044ce2bec38ea03584b8b86d18f050d5dda99060200160405180910390a1505050505050565b6000838152600960205260409020600281015468010000000000000000900467ffffffffffffffff1615614c77576040517f08c379a000000000000000000000000000000000000000000000000000000000815260206004820152600e60248201527f4475706c696361746520747265650000000000000000000000000000000000006044820152606401610845565b6002810180547fffffffffffffffffffffffffffffffff0000000000000000ffffffffffffffff1668020000000000000000179055614cba600382018484614e28565b506040518481527fa4af200dc5a6779ca0b468c7da84df9212cacc9efa51c54cf145b4f8308796b49060200160405180910390a150505050565b600063ffffffff821115614d8a576040517f08c379a000000000000000000000000000000000000000000000000000000000815260206004820152602660248201527f53616665436173743a2076616c756520646f65736e27742066697420696e203360448201527f32206269747300000000000000000000000000000000000000000000000000006064820152608401610845565b5090565b600067ffffffffffffffff821115614d8a576040517f08c379a000000000000000000000000000000000000000000000000000000000815260206004820152602660248201527f53616665436173743a2076616c756520646f65736e27742066697420696e203660448201527f34206269747300000000000000000000000000000000000000000000000000006064820152608401610845565b828054614e3490615d3a565b90600052602060002090601f016020900481019282614e565760008555614eba565b82601f10614e8d578280017fffffffffffffffffffffffffffffffffffffffffffffffffffffffffffffff00823516178555614eba565b82800160010185558215614eba579182015b82811115614eba578235825591602001919060010190614e9f565b50614d8a929150614f3a565b828054614ed290615d3a565b90600052602060002090601f016020900481019282614ef45760008555614eba565b82601f10614f0d57805160ff1916838001178555614eba565b82800160010185558215614eba579182015b82811115614eba578251825591602001919060010190614f1f565b5b80821115614d8a5760008155600101614f3b565b803573ffffffffffffffffffffffffffffffffffffffff81168114614f7357600080fd5b919050565b60008083601f840112614f8a57600080fd5b50813567ffffffffffffffff811115614fa257600080fd5b6020830191508360208260051b8501011115614fbd57600080fd5b9250929050565b600082601f830112614fd557600080fd5b813567ffffffffffffffff811115614fef57614fef615e25565b61502060207fffffffffffffffffffffffffffffffffffffffffffffffffffffffffffffffe0601f840116016157f9565b81815284602083860101111561503557600080fd5b816020850160208301376000918101602001919091529392505050565b803561ffff81168114614f7357600080fd5b803563ffffffff81168114614f7357600080fd5b803567ffffffffffffffff81168114614f7357600080fd5b803560ff81168114614f7357600080fd5b6000602082840312156150b357600080fd5b61245a82614f4f565b600080602083850312156150cf57600080fd5b823567ffffffffffffffff8111156150e657600080fd5b6150f285828601614f78565b90969095509350505050565b6000806000806040858703121561511457600080fd5b843567ffffffffffffffff8082111561512c57600080fd5b61513888838901614f78565b9096509450602087013591508082111561515157600080fd5b5061515e87828801614f78565b95989497509550505050565b60006020828403121561517c57600080fd5b8151801515811461245a57600080fd5b60006020828403121561519e57600080fd5b5035919050565b600080604083850312156151b857600080fd5b823591506151c860208401614f4f565b90509250929050565b600080600080600080600080610100898b0312156151ee57600080fd5b883597506151fe60208a01614f4f565b9650604089013567ffffffffffffffff81111561521a57600080fd5b6152268b828c01614fc4565b96505061523560608a01615078565b945061524360808a01615052565b935061525160a08a01615090565b925060c0890135915060e089013590509295985092959890939650565b60008060008060008060008060006101208a8c03121561528d57600080fd5b8935985061529d60208b01614f4f565b975060408a0135965060608a013567ffffffffffffffff8111156152c057600080fd5b6152cc8c828d01614fc4565b9650506152db60808b01615078565b94506152e960a08b01615052565b93506152f760c08b01615090565b925060e08a013591506101008a013590509295985092959850929598565b600080600080600080600060e0888a03121561533057600080fd5b8735965061534060208901614f4f565b955060408801359450606088013567ffffffffffffffff81111561536357600080fd5b61536f8a828b01614fc4565b94505061537e60808901615090565b925060a0880135915060c0880135905092959891949750929550565b600080604083850312156153ad57600080fd5b50508035926020909101359150565b6000806000606084860312156153d157600080fd5b505081359360208301359350604090920135919050565b6000806000606084860312156153fd57600080fd5b833592506020840135915061541460408501615064565b90509250925092565b6000806040838503121561543057600080fd5b823591506151c860208401615064565b60008060006040848603121561545557600080fd5b61545e84615078565b9250602084013567ffffffffffffffff8082111561547b57600080fd5b818601915086601f83011261548f57600080fd5b81358181111561549e57600080fd5b8760208285010111156154b057600080fd5b6020830194508093505050509250925092565b600080604083850312156154d657600080fd5b6154df83615090565b91506151c860208401614f4f565b6000815180845260005b81811015615513576020818501810151868301820152016154f7565b81811115615525576000602083870101525b50601f017fffffffffffffffffffffffffffffffffffffffffffffffffffffffffffffffe0169290920160200192915050565b73ffffffffffffffffffffffffffffffffffffffff891681526020810188905263ffffffff87811660408301528616606082015267ffffffffffffffff858116608083015284811660a0830152831660c082015261010060e082018190526000906155c5838201856154ed565b9b9a5050505050505050505050565b6040815260006155e760408301856154ed565b905067ffffffffffffffff831660208301529392505050565b67ffffffffffffffff8416815260406020820152816040820152818360608301376000818301606090810191909152601f9092017fffffffffffffffffffffffffffffffffffffffffffffffffffffffffffffffe016010192915050565b600067ffffffffffffffff80891683528088166020840152808716604084015280861660608401525073ffffffffffffffffffffffffffffffffffffffff8416608083015260c060a08301526156b760c08301846154ed565b98975050505050505050565b60008083357fffffffffffffffffffffffffffffffffffffffffffffffffffffffffffffffe18436030181126156f857600080fd5b83018035915067ffffffffffffffff82111561571357600080fd5b602001915036819003821315614fbd57600080fd5b600082357fffffffffffffffffffffffffffffffffffffffffffffffffffffffffffffffc183360301811261575c57600080fd5b9190910192915050565b6040805190810167ffffffffffffffff8111828210171561578957615789615e25565b60405290565b604051610100810167ffffffffffffffff8111828210171561578957615789615e25565b60405160e0810167ffffffffffffffff8111828210171561578957615789615e25565b60405160c0810167ffffffffffffffff8111828210171561578957615789615e25565b604051601f82017fffffffffffffffffffffffffffffffffffffffffffffffffffffffffffffffe016810167ffffffffffffffff8111828210171561584057615840615e25565b604052919050565b600067ffffffffffffffff82111561586257615862615e25565b5060051b60200190565b6000821982111561587f5761587f615dc7565b500190565b6000826158ba577f4e487b7100000000000000000000000000000000000000000000000000000000600052601260045260246000fd5b500490565b600067ffffffffffffffff808316818516818304811182151516156158e6576158e6615dc7565b02949350505050565b60008282101561590157615901615dc7565b500390565b6000604080833603121561591957600080fd5b615921615766565b61592a84614f4f565b815260208085013567ffffffffffffffff8082111561594857600080fd5b9086019036601f83011261595b57600080fd5b813561596e61596982615848565b6157f9565b8181528481019084860136600585901b87018801111561598d57600080fd5b60005b84811015615a7a578135868111156159a757600080fd5b8701610100368290037fffffffffffffffffffffffffffffffffffffffffffffffffffffffffffffffe0018113156159de57600080fd5b6159e661578f565b8a83013581528c8301358b8201526060808401358a811115615a0757600080fd5b615a15368e83880101614fc4565b8f840152506080615a27818601615078565b8284015260a09150615a3a828601615052565b9083015260c0615a4b858201615090565b9183019190915260e0848101359183019190915291909201359082015284529287019290870190600101615990565b50509486019490945250929695505050505050565b60006040808336031215615aa257600080fd5b615aaa615766565b615ab384614f4f565b815260208085013567ffffffffffffffff80821115615ad157600080fd5b9086019036601f830112615ae457600080fd5b8135615af261596982615848565b8181528481019084860136600585901b870188011115615b1157600080fd5b60005b84811015615a7a57813586811115615b2b57600080fd5b870160e0368290037fffffffffffffffffffffffffffffffffffffffffffffffffffffffffffffffe001811315615b6157600080fd5b615b696157b3565b8a83013581528c83013589811115615b8057600080fd5b615b8e368d83870101614fc4565b8c830152506060615ba0818501615078565b8e8301526080615bb1818601615052565b8284015260a09150615bc4828601615090565b9083015260c0848101359183019190915291909201359082015284529287019290870190600101615b14565b60006040808336031215615c0357600080fd5b615c0b615766565b615c1484614f4f565b815260208085013567ffffffffffffffff80821115615c3257600080fd5b9086019036601f830112615c4557600080fd5b8135615c5361596982615848565b8181528481019084860136600585901b870188011115615c7257600080fd5b60005b84811015615a7a57813586811115615c8c57600080fd5b870160c0368290037fffffffffffffffffffffffffffffffffffffffffffffffffffffffffffffffe001811315615cc257600080fd5b615cca6157d6565b8a83013581528c8301358b8201526060808401358a811115615ceb57600080fd5b615cf9368e83880101614fc4565b8f840152506080615d0b818601615090565b9183019190915260a0848101359183019190915291909201359082015284529287019290870190600101615c75565b600181811c90821680615d4e57607f821691505b60208210811415615d88577f4e487b7100000000000000000000000000000000000000000000000000000000600052602260045260246000fd5b50919050565b60007fffffffffffffffffffffffffffffffffffffffffffffffffffffffffffffffff821415615dc057615dc0615dc7565b5060010190565b7f4e487b7100000000000000000000000000000000000000000000000000000000600052601160045260246000fd5b7f4e487b7100000000000000000000000000000000000000000000000000000000600052603260045260246000fd5b7f4e487b7100000000000000000000000000000000000000000000000000000000600052604160045260246000fdfea264697066735822122099cd61050383e30a3bfe56e1e7c7d2c0b93dd4fb7216d4ce827dfdcf460d22e964736f6c63430008060033",
  "immutableReferences": {},
  "source": "// SPDX-License-Identifier: GPL-3.0\n\npragma solidity ^0.8.6;\n\nimport \"@openzeppelin/contracts-upgradeable/utils/math/SafeCastUpgradeable.sol\";\n\nimport \"@openzeppelin/contracts-upgradeable/utils/CountersUpgradeable.sol\";\nimport \"@openzeppelin/contracts-upgradeable/proxy/utils/Initializable.sol\";\nimport \"../access/IAccessRestriction.sol\";\nimport \"../gsn/RelayRecipientV2.sol\";\nimport \"../tree/ITree.sol\";\nimport \"../treasury/IPlanterFund.sol\";\nimport \"../planter/IPlanterV2.sol\";\nimport \"./ITreeFactoryV3.sol\";\n\nimport \"./../marketPlace/IMarketPlace.sol\";\n\n/** @title TreeFactory Contract */\ncontract TreeFactoryV3 is Initializable, RelayRecipientV2, ITreeFactoryV3 {\n    using CountersUpgradeable for CountersUpgradeable.Counter;\n    using SafeCastUpgradeable for uint256;\n    using SafeCastUpgradeable for uint32;\n\n    struct TreeData {\n        address planter;\n        uint256 species;\n        uint32 countryCode;\n        uint32 saleType;\n        uint64 treeStatus;\n        uint64 plantDate;\n        uint64 birthDate;\n        string treeSpecs;\n    }\n\n    struct TreeUpdate {\n        string updateSpecs;\n        uint64 updateStatus;\n    }\n\n    struct TempTree {\n        uint64 birthDate;\n        uint64 plantDate;\n        uint64 countryCode;\n        uint64 otherData;\n        address planter;\n        string treeSpecs;\n    }\n\n    /** @notice deprecated */\n    CountersUpgradeable.Counter private _pendingRegularTreeId;\n\n    /** NOTE {isTreeFactory} set inside the initialize to {true} */\n    bool public override isTreeFactory;\n    uint256 public override lastRegualarTreeId;\n    uint256 public override treeUpdateInterval;\n\n    IAccessRestriction public accessRestriction;\n    ITree public treeToken;\n    IPlanterFund public planterFund;\n    IPlanterV2 public planterContract;\n\n    /** NOTE mapping of treeId to TreeData Struct */\n    mapping(uint256 => TreeData) public override trees;\n    /** @notice deprecated */\n    mapping(uint256 => TreeUpdate) public override treeUpdates;\n    /** @notice deprecated */\n    mapping(uint256 => TempTree) public override tempTrees;\n\n    //----->CHANGED  Version 2 data\n\n    IMarketPlace public marketPlace;\n\n    mapping(uint256 => uint256) public tempTreesModel; // tempIndex => modelMetaDataId\n\n    //------- data for v2\n\n    bytes32 public constant PLANT_ASSIGN_TREE_TYPE_HASH =\n        keccak256(\n            \"plantAssignTree(uint256 nonce,uint256 treeId,string treeSpecs,uint64 birthDate,uint16 countryCode)\"\n        );\n\n    bytes32 public constant PLANT_TREE_TYPE_HASH =\n        keccak256(\n            \"plantTree(uint256 nonce,string treeSpecs,uint64 birthDate,uint16 countryCode)\"\n        );\n\n    bytes32 public constant VERIFY_UPDATE_TYPE_HASH =\n        keccak256(\"updateTree(uint256 nonce,uint256 treeId,string treeSpecs)\");\n\n    /** NOTE mapping of planterAddress to nonce */\n    mapping(address => uint256) public override plantersNonce;\n\n    /** NOTE modifier to check msg.sender has admin role */\n    modifier onlyAdmin() {\n        accessRestriction.ifAdmin(msg.sender);\n        _;\n    }\n\n    /** NOTE modifier to check msg.sender has data manager role */\n    modifier onlyDataManager() {\n        accessRestriction.ifDataManager(msg.sender);\n        _;\n    }\n\n    /** NOTE modifier to check msg.sender has verifier role */\n    modifier onlyVerifier() {\n        accessRestriction.ifVerifier(msg.sender);\n        _;\n    }\n\n    /** NOTE modifier for check if function is not paused*/\n    modifier ifNotPaused() {\n        accessRestriction.ifNotPaused();\n        _;\n    }\n\n    /** NOTE modifier to check msg.sender has script role */\n    modifier onlyScript() {\n        accessRestriction.ifScript(msg.sender);\n        _;\n    }\n\n    /** NOTE modifier for check msg.sender has TreejerContract role */\n    modifier onlyTreejerContract() {\n        accessRestriction.ifTreejerContract(msg.sender);\n        _;\n    }\n\n    /** NOTE modifier for check valid address */\n    modifier validAddress(address _address) {\n        require(_address != address(0), \"Invalid address\");\n        _;\n    }\n\n    /// @inheritdoc ITreeFactoryV3\n    function initialize(\n        address _accessRestrictionAddress\n    ) external override initializer {\n        IAccessRestriction candidateContract = IAccessRestriction(\n            _accessRestrictionAddress\n        );\n\n        require(candidateContract.isAccessRestriction());\n\n        isTreeFactory = true;\n        accessRestriction = candidateContract;\n        lastRegualarTreeId = 10000;\n        treeUpdateInterval = 604800;\n    }\n\n    /// @inheritdoc ITreeFactoryV3\n    function setContractAddresses(\n        uint8 _selector,\n        address _address\n    ) external override onlyAdmin validAddress(_address) {\n        if (_selector == 0) {\n            IPlanterFund candidateContract = IPlanterFund(_address);\n\n            require(candidateContract.isPlanterFund());\n\n            planterFund = candidateContract;\n        } else if (_selector == 1) {\n            IPlanterV2 candidateContract = IPlanterV2(_address);\n\n            require(candidateContract.isPlanter());\n\n            planterContract = candidateContract;\n        } else if (_selector == 2) {\n            ITree candidateContract = ITree(_address);\n\n            require(candidateContract.isTree());\n\n            treeToken = candidateContract;\n        }\n    }\n\n    /// @inheritdoc ITreeFactoryV3\n    function setUpdateInterval(\n        uint256 _seconds\n    ) external override ifNotPaused onlyDataManager {\n        treeUpdateInterval = _seconds;\n\n        emit TreeUpdateIntervalChanged();\n    }\n\n    /// @inheritdoc ITreeFactoryV3\n    function listTreeBatch(\n        uint256[] calldata _treeIds,\n        string[] calldata _treeSpecs\n    ) external override ifNotPaused onlyDataManager {\n        require(_treeIds.length == _treeSpecs.length, \"invalid inputs\");\n\n        for (uint256 i = 0; i < _treeIds.length; i++) {\n            _setTreeListingData(_treeIds[i], _treeSpecs[i]);\n        }\n    }\n\n    /// @inheritdoc ITreeFactoryV3\n    function resetTreeStatusBatch(\n        uint256 _startTreeId,\n        uint256 _endTreeId\n    ) external override ifNotPaused onlyDataManager {\n        for (uint256 i = _startTreeId; i < _endTreeId; i++) {\n            if (trees[i].treeStatus == 2) {\n                trees[i].treeStatus = 0;\n            }\n        }\n\n        emit TreeStatusBatchReset();\n    }\n\n    /// @inheritdoc ITreeFactoryV3\n    function assignTree(\n        uint256 _treeId,\n        address _planter\n    ) external override ifNotPaused onlyDataManager {\n        _setAssigningTreeData(_treeId, _planter);\n    }\n\n    /// @inheritdoc ITreeFactoryV3\n    function assignTreeBatch(\n        uint256[] calldata _treeIds,\n        address[] calldata _planters\n    ) external override ifNotPaused onlyDataManager {\n        require(_treeIds.length == _planters.length, \"invalid inputs\");\n\n        for (uint256 i = 0; i < _treeIds.length; i++) {\n            _setAssigningTreeData(_treeIds[i], _planters[i]);\n        }\n    }\n\n    /// @inheritdoc ITreeFactoryV3\n    function verifyAssignedTreeBatch(\n        VerifyAssignedTreeData[] calldata _verifyAssignedTreeData\n    ) external override ifNotPaused onlyVerifier {\n        bytes32 domainSeparator = _buildDomainSeparator();\n\n        unchecked {\n            for (uint256 i = 0; i < _verifyAssignedTreeData.length; i++) {\n                VerifyAssignedTreeData\n                    memory verifyAssignedTreeData = _verifyAssignedTreeData[i];\n\n                uint256 planterNonce = plantersNonce[\n                    verifyAssignedTreeData.planter\n                ];\n\n                for (\n                    uint256 j = 0;\n                    j < verifyAssignedTreeData.data.length;\n                    j++\n                ) {\n                    PlantAssignedTreeData\n                        memory plantAssignedTreeData = verifyAssignedTreeData\n                            .data[j];\n\n                    _checkSigner(\n                        domainSeparator,\n                        keccak256(\n                            abi.encode(\n                                PLANT_ASSIGN_TREE_TYPE_HASH,\n                                plantAssignedTreeData.nonce,\n                                plantAssignedTreeData.treeId,\n                                keccak256(\n                                    bytes(plantAssignedTreeData.treeSpecs)\n                                ),\n                                plantAssignedTreeData.birthDate,\n                                plantAssignedTreeData.countryCode\n                            )\n                        ),\n                        verifyAssignedTreeData.planter,\n                        plantAssignedTreeData.v,\n                        plantAssignedTreeData.r,\n                        plantAssignedTreeData.s\n                    );\n\n                    require(\n                        planterNonce < plantAssignedTreeData.nonce,\n                        \"planter nonce is incorrect\"\n                    );\n\n                    planterNonce = plantAssignedTreeData.nonce;\n\n                    //-------------------------->update tree data\n\n                    _setVerifyAssignedTreeData(\n                        plantAssignedTreeData.treeId,\n                        verifyAssignedTreeData.planter,\n                        plantAssignedTreeData.treeSpecs,\n                        plantAssignedTreeData.birthDate,\n                        plantAssignedTreeData.countryCode\n                    );\n                }\n                plantersNonce[verifyAssignedTreeData.planter] = planterNonce;\n            }\n        }\n    }\n\n    /// @inheritdoc ITreeFactoryV3\n    function verifyAssignedTree(\n        uint256 _nonce,\n        address _planter,\n        uint256 _treeId,\n        string memory _treeSpecs,\n        uint64 _birthDate,\n        uint16 _countryCode,\n        uint8 _v,\n        bytes32 _r,\n        bytes32 _s\n    ) external override ifNotPaused onlyVerifier {\n        require(plantersNonce[_planter] < _nonce, \"planter nonce is incorrect\");\n\n        _checkSigner(\n            _buildDomainSeparator(),\n            keccak256(\n                abi.encode(\n                    PLANT_ASSIGN_TREE_TYPE_HASH,\n                    _nonce,\n                    _treeId,\n                    keccak256(bytes(_treeSpecs)),\n                    _birthDate,\n                    _countryCode\n                )\n            ),\n            _planter,\n            _v,\n            _r,\n            _s\n        );\n\n        _setVerifyAssignedTreeData(\n            _treeId,\n            _planter,\n            _treeSpecs,\n            _birthDate,\n            _countryCode\n        );\n\n        plantersNonce[_planter] = _nonce;\n    }\n\n    /// @inheritdoc ITreeFactoryV3\n    function verifyUpdateBatch(\n        VerifyUpdateData[] calldata _verifyUpdateData\n    ) external override ifNotPaused onlyVerifier {\n        bytes32 domainSeparator = _buildDomainSeparator();\n        unchecked {\n            for (uint256 i = 0; i < _verifyUpdateData.length; i++) {\n                VerifyUpdateData memory verifyUpdateData = _verifyUpdateData[i];\n\n                uint256 planterNonce = plantersNonce[verifyUpdateData.planter];\n\n                for (\n                    uint256 j = 0;\n                    j < verifyUpdateData.updateData.length;\n                    j++\n                ) {\n                    UpdateData memory updateData = verifyUpdateData.updateData[\n                        j\n                    ];\n\n                    require(\n                        planterNonce < updateData.nonce,\n                        \"planter nonce is incorrect\"\n                    );\n\n                    planterNonce = updateData.nonce;\n\n                    _checkSigner(\n                        domainSeparator,\n                        keccak256(\n                            abi.encode(\n                                VERIFY_UPDATE_TYPE_HASH,\n                                updateData.nonce,\n                                updateData.treeId,\n                                keccak256(bytes(updateData.treeSpecs))\n                            )\n                        ),\n                        verifyUpdateData.planter,\n                        updateData.v,\n                        updateData.r,\n                        updateData.s\n                    );\n\n                    _setVerifyUpdateData(\n                        updateData.treeId,\n                        verifyUpdateData.planter,\n                        updateData.treeSpecs\n                    );\n                }\n\n                plantersNonce[verifyUpdateData.planter] = planterNonce;\n            }\n        }\n    }\n\n    /// @inheritdoc ITreeFactoryV3\n    function verifyUpdate(\n        uint256 _nonce,\n        address _planter,\n        uint256 _treeId,\n        string memory _treeSpecs,\n        uint8 _v,\n        bytes32 _r,\n        bytes32 _s\n    ) external override ifNotPaused onlyVerifier {\n        require(plantersNonce[_planter] < _nonce, \"planter nonce is incorrect\");\n\n        _checkSigner(\n            _buildDomainSeparator(),\n            keccak256(\n                abi.encode(\n                    VERIFY_UPDATE_TYPE_HASH,\n                    _nonce,\n                    _treeId,\n                    keccak256(bytes(_treeSpecs))\n                )\n            ),\n            _planter,\n            _v,\n            _r,\n            _s\n        );\n\n        _setVerifyUpdateData(_treeId, _planter, _treeSpecs);\n\n        plantersNonce[_planter] = _nonce;\n    }\n\n    /// @inheritdoc ITreeFactoryV3\n    function manageSaleType(\n        uint256 _treeId,\n        uint32 _saleType\n    ) external override onlyTreejerContract returns (uint32) {\n        if (treeToken.exists(_treeId)) {\n            return 1;\n        }\n\n        TreeData storage treeData = trees[_treeId];\n\n        uint32 currentSaleType = treeData.saleType;\n\n        if (currentSaleType == 0) {\n            treeData.saleType = _saleType;\n            if (treeData.treeStatus == 0) {\n                treeData.treeStatus = 2;\n            }\n        }\n\n        return currentSaleType;\n    }\n\n    /// @inheritdoc ITreeFactoryV3\n    function mintAssignedTree(\n        uint256 _treeId,\n        address _funder\n    ) external override onlyTreejerContract {\n        trees[_treeId].saleType = 0;\n        treeToken.mint(_funder, _treeId);\n    }\n\n    /// @inheritdoc ITreeFactoryV3\n    function resetSaleType(\n        uint256 _treeId\n    ) external override onlyTreejerContract {\n        trees[_treeId].saleType = 0;\n    }\n\n    /// @inheritdoc ITreeFactoryV3\n    function resetSaleTypeBatch(\n        uint256 _startTreeId,\n        uint256 _endTreeId,\n        uint256 _saleType\n    ) external override onlyTreejerContract {\n        for (uint256 i = _startTreeId; i < _endTreeId; i++) {\n            TreeData storage treeData = trees[i];\n\n            if (treeData.saleType == _saleType) {\n                treeData.saleType = 0;\n\n                if (treeData.treeStatus == 2) {\n                    treeData.planter = address(0);\n                }\n            }\n        }\n    }\n\n    /// @inheritdoc ITreeFactoryV3\n    function manageSaleTypeBatch(\n        uint256 _startTreeId,\n        uint256 _endTreeId,\n        uint32 _saleType\n    ) external override onlyTreejerContract returns (bool) {\n        for (uint256 i = _startTreeId; i < _endTreeId; i++) {\n            if (trees[i].saleType > 0 || treeToken.exists(i)) {\n                return false;\n            }\n        }\n        for (uint256 j = _startTreeId; j < _endTreeId; j++) {\n            TreeData storage treeData = trees[j];\n\n            treeData.saleType = _saleType;\n\n            if (treeData.treeStatus == 0) {\n                treeData.treeStatus = 2;\n            }\n        }\n        return true;\n    }\n\n    /// @inheritdoc ITreeFactoryV3\n    function updateLastRegualarTreeId(\n        uint256 _lastRegualarTreeId\n    ) external override ifNotPaused onlyDataManager {\n        require(\n            _lastRegualarTreeId > lastRegualarTreeId,\n            \"Invalid lastRegualarTreeId\"\n        );\n\n        lastRegualarTreeId = _lastRegualarTreeId;\n\n        emit LastRegualarTreeIdUpdated(_lastRegualarTreeId);\n    }\n\n    /// @inheritdoc ITreeFactoryV3\n    function verifyTreeBatch(\n        VerifyTreeData[] calldata _verifyTreeData\n    ) external override ifNotPaused onlyVerifier {\n        uint256 tempLastRegularTreeId = lastRegualarTreeId;\n\n        bytes32 domainSeparator = _buildDomainSeparator();\n\n        unchecked {\n            for (uint256 i = 0; i < _verifyTreeData.length; i++) {\n                VerifyTreeData memory verifyTreeData = _verifyTreeData[i];\n\n                require(\n                    planterContract.manageTreePermissionBatch(\n                        verifyTreeData.planter,\n                        verifyTreeData.data.length.toUint32()\n                    ),\n                    \"Permission denied\"\n                );\n\n                uint256 planterNonce = plantersNonce[verifyTreeData.planter];\n\n                for (uint256 j = 0; j < verifyTreeData.data.length; j++) {\n                    PlantTreeData memory plantTreeData = verifyTreeData.data[j];\n\n                    require(\n                        planterNonce < plantTreeData.nonce,\n                        \"planter nonce is incorrect\"\n                    );\n\n                    planterNonce = plantTreeData.nonce;\n\n                    _checkSigner(\n                        domainSeparator,\n                        keccak256(\n                            abi.encode(\n                                PLANT_TREE_TYPE_HASH,\n                                plantTreeData.nonce,\n                                keccak256(bytes(plantTreeData.treeSpecs)),\n                                plantTreeData.birthDate,\n                                plantTreeData.countryCode\n                            )\n                        ),\n                        verifyTreeData.planter,\n                        plantTreeData.v,\n                        plantTreeData.r,\n                        plantTreeData.s\n                    );\n\n                    tempLastRegularTreeId = _setVerifyTreeData(\n                        tempLastRegularTreeId + 1,\n                        plantTreeData.countryCode,\n                        plantTreeData.birthDate,\n                        plantTreeData.treeSpecs,\n                        verifyTreeData.planter,\n                        plantTreeData.nonce\n                    );\n                }\n\n                plantersNonce[verifyTreeData.planter] = planterNonce;\n            }\n        }\n\n        lastRegualarTreeId = tempLastRegularTreeId;\n    }\n\n    /// @inheritdoc ITreeFactoryV3\n    function verifyTree(\n        uint256 _nonce,\n        address _planter,\n        string memory _treeSpecs,\n        uint64 _birthDate,\n        uint16 _countryCode,\n        uint8 _v,\n        bytes32 _r,\n        bytes32 _s\n    ) external override ifNotPaused onlyVerifier {\n        require(planterContract.manageTreePermission(_planter));\n\n        require(plantersNonce[_planter] < _nonce, \"planter nonce is incorrect\");\n        bytes32 domainSeparator = _buildDomainSeparator();\n\n        _checkSigner(\n            domainSeparator,\n            keccak256(\n                abi.encode(\n                    PLANT_TREE_TYPE_HASH,\n                    _nonce,\n                    keccak256(bytes(_treeSpecs)),\n                    _birthDate,\n                    _countryCode\n                )\n            ),\n            _planter,\n            _v,\n            _r,\n            _s\n        );\n\n        lastRegualarTreeId = _setVerifyTreeData(\n            lastRegualarTreeId + 1,\n            _countryCode,\n            _birthDate,\n            _treeSpecs,\n            _planter,\n            _nonce\n        );\n\n        plantersNonce[_planter] = _nonce;\n    }\n\n    /// @inheritdoc ITreeFactoryV3\n    function mintTree(\n        uint256 _lastFundedTreeId,\n        address _funder\n    ) external override onlyTreejerContract returns (uint256) {\n        uint256 tempLastFundedTreeId = _lastFundedTreeId + 1;\n\n        bool flag = (trees[tempLastFundedTreeId].treeStatus == 0 &&\n            trees[tempLastFundedTreeId].saleType == 0) ||\n            (trees[tempLastFundedTreeId].treeStatus > 3 &&\n                trees[tempLastFundedTreeId].saleType == 4);\n\n        while (!flag) {\n            tempLastFundedTreeId = tempLastFundedTreeId + 1;\n\n            flag =\n                (trees[tempLastFundedTreeId].treeStatus == 0 &&\n                    trees[tempLastFundedTreeId].saleType == 0) ||\n                (trees[tempLastFundedTreeId].treeStatus > 3 &&\n                    trees[tempLastFundedTreeId].saleType == 4);\n        }\n\n        trees[tempLastFundedTreeId].saleType = 0;\n\n        treeToken.mint(_funder, tempLastFundedTreeId);\n\n        return tempLastFundedTreeId;\n    }\n\n    /// @inheritdoc ITreeFactoryV3\n    function mintTreeById(\n        uint256 _treeId,\n        address _funder\n    ) external override onlyTreejerContract {\n        TreeData storage treeData = trees[_treeId];\n\n        require(\n            treeData.treeStatus > 3 && treeData.saleType == 4,\n            \"Tree not planted\"\n        );\n\n        treeData.saleType = 0;\n\n        treeToken.mint(_funder, _treeId);\n    }\n\n    /// @inheritdoc ITreeFactoryV3\n    function updateTreeSpecs(\n        uint64 _treeId,\n        string calldata _treeSpecs\n    ) external override ifNotPaused onlyScript {\n        trees[_treeId].treeSpecs = _treeSpecs;\n\n        emit TreeSpecsUpdated(_treeId, _treeSpecs);\n    }\n\n    /**\n     * @dev Returns an Ethereum Signed Typed Data, created from a\n     * `domainSeparator` and a `structHash`. This produces hash corresponding\n     * to the one signed with the\n     * https://eips.ethereum.org/EIPS/eip-712[`eth_signTypedData`]\n     * JSON-RPC method as part of EIP-712.\n     *\n     */\n    function _toTypedDataHash(\n        bytes32 _domainSeperator,\n        bytes32 _structHash\n    ) private pure returns (bytes32) {\n        return\n            keccak256(\n                abi.encodePacked(\"\\x19\\x01\", _domainSeperator, _structHash)\n            );\n    }\n\n    /**\n     * @dev check if the given planter is the signer of given signature or not\n     */\n    function _checkSigner(\n        bytes32 _domainSeparator,\n        bytes32 _hashStruct,\n        address _planter,\n        uint8 _v,\n        bytes32 _r,\n        bytes32 _s\n    ) private pure {\n        bytes32 hash = _toTypedDataHash(_domainSeparator, _hashStruct);\n\n        address signer = ecrecover(hash, _v, _r, _s);\n\n        require(signer == _planter, \"TreeFactory: invalid signature\");\n    }\n\n    /**\n     * @dev return domain separator\n     */\n    function _buildDomainSeparator() private view returns (bytes32) {\n        return\n            keccak256(\n                abi.encode(\n                    keccak256(\n                        \"EIP712Domain(string name,string version,uint256 chainId,address verifyingContract)\"\n                    ),\n                    keccak256(bytes(\"Treejer Protocol\")),\n                    keccak256(bytes(\"1\")),\n                    block.chainid,\n                    address(this)\n                )\n            );\n    }\n\n    /**\n     * @dev set data for listing tree\n     */\n    function _setTreeListingData(\n        uint256 _treeId,\n        string calldata _treeSpecs\n    ) private {\n        TreeData storage treeData = trees[_treeId];\n\n        require(treeData.treeStatus == 0, \"Duplicate tree\");\n\n        treeData.treeStatus = 2;\n        treeData.treeSpecs = _treeSpecs;\n\n        emit TreeListed(_treeId);\n    }\n\n    /**\n     * @dev assign planter for a tree\n     */\n    function _setAssigningTreeData(uint256 _treeId, address _planter) private {\n        TreeData storage treeData = trees[_treeId];\n\n        require(treeData.treeStatus == 2, \"Invalid tree\");\n\n        require(planterContract.canAssignTree(_planter), \"Not allowed planter\");\n\n        treeData.planter = _planter;\n\n        emit TreeAssigned(_treeId);\n    }\n\n    /**\n     * @dev check planting permission and set data for verified tree\n     */\n    function _setVerifyAssignedTreeData(\n        uint256 _treeId,\n        address _planter,\n        string memory _treeSpecs,\n        uint64 _birthDate,\n        uint16 _countryCode\n    ) private {\n        TreeData storage treeData = trees[_treeId];\n\n        require(treeData.treeStatus == 2, \"Invalid tree status\");\n\n        //----------> check can plant\n        require(\n            planterContract.manageAssignedTreePermission(\n                _planter,\n                treeData.planter\n            ),\n            \"Permission denied\"\n        );\n\n        if (_planter != treeData.planter) {\n            treeData.planter = _planter;\n        }\n\n        treeData.countryCode = _countryCode;\n        treeData.birthDate = _birthDate;\n        treeData.plantDate = block.timestamp.toUint64();\n        treeData.treeStatus = 4;\n\n        treeData.treeSpecs = _treeSpecs;\n\n        emit AssignedTreeVerified(_treeId);\n    }\n\n    /**\n     * @dev check permissions and set data for verified tree\n     * and based on the current time of verifing and plant date, age of tree\n     * calculated and set as the treeStatus and if a token exist for\n     * that tree (minted before) planter of tree funded\n     * based on calculated tree status\n     */\n    function _setVerifyUpdateData(\n        uint256 _treeId,\n        address _planter,\n        string memory _treeSpecs\n    ) private {\n        TreeData storage treeData = trees[_treeId];\n\n        require(treeData.planter == _planter, \"Not owned tree\");\n\n        require(treeData.treeStatus > 3, \"Tree not planted\");\n\n        require(\n            block.timestamp >=\n                treeData.plantDate +\n                    ((treeData.treeStatus * 3600) + treeUpdateInterval),\n            \"Early update\"\n        );\n\n        uint32 age = ((block.timestamp - treeData.plantDate) / 3600).toUint32();\n\n        if (age > treeData.treeStatus) {\n            treeData.treeStatus = age;\n        }\n\n        treeData.treeSpecs = _treeSpecs;\n\n        if (treeToken.exists(_treeId)) {\n            planterFund.updatePlanterTotalClaimed(\n                _treeId,\n                treeData.planter,\n                treeData.treeStatus\n            );\n        }\n\n        emit TreeUpdatedVerified(_treeId);\n    }\n\n    /**\n     * @dev verifying plant of regular tree and find an available treeId and set data for it\n     */\n\n    function _setVerifyTreeData(\n        uint256 _tempLastRegularTreeId,\n        uint16 _countryCode,\n        uint64 _birthDate,\n        string memory _treeSpecs,\n        address _planter,\n        uint _nonce\n    ) private returns (uint256) {\n        while (\n            !(trees[_tempLastRegularTreeId].treeStatus == 0 &&\n                trees[_tempLastRegularTreeId].saleType == 0)\n        ) {\n            _tempLastRegularTreeId += 1;\n        }\n\n        TreeData storage treeData = trees[_tempLastRegularTreeId];\n\n        treeData.plantDate = block.timestamp.toUint64();\n        treeData.countryCode = uint16(_countryCode);\n        treeData.birthDate = _birthDate;\n        treeData.treeSpecs = _treeSpecs;\n        treeData.planter = _planter;\n        treeData.treeStatus = 4;\n\n        if (!treeToken.exists(_tempLastRegularTreeId)) {\n            treeData.saleType = 4;\n        }\n\n        emit TreeVerified(_planter, _nonce);\n\n        return _tempLastRegularTreeId;\n    }\n}\n",
  "sourcePath": "/home/ali/Desktop/work/treejer/contract/contracts/tree/TreeFactoryV3.sol",
  "compiler": {
    "name": "solc",
    "version": "0.8.6+commit.11564f7e.Emscripten.clang"
  },
  "schemaVersion": "3.4.6",
  "updatedAt": "2023-04-16T14:42:55.705Z",
  "networkType": "ethereum",
  "devdoc": {
    "kind": "dev",
    "methods": {
      "assignTree(uint256,address)": {
        "details": "admin assign an existing tree to planter NOTE tree must be not planted NOTE emit a {TreeAssigned} event",
        "params": {
          "_planter": "assignee planter",
          "_treeId": "id of tree to assign"
        }
      },
      "assignTreeBatch(uint256[],address[])": {
        "details": "admin assign batch of existing trees to planters NOTE tree must be not planted NOTE emit a {TreeAssigned} event",
        "params": {
          "_planters": "assignee planters",
          "_treeIds": "id of trees to assign"
        }
      },
      "initialize(address)": {
        "details": "initialize AccessRestriction contract,lastRegualarTreeId,treeUpdateInterval and set true for isTreeFactory",
        "params": {
          "_accessRestrictionAddress": "set to the address of AccessRestriction contract"
        }
      },
      "listTreeBatch(uint256[],string[])": {
        "details": "admin list batch of trees NOTE emit {TreeListed} event",
        "params": {
          "_treeIds": "list of tree ids",
          "_treeSpecs": "list of tree specs"
        }
      },
      "manageSaleType(uint256,uint32)": {
        "details": "check if a tree is free to take part in sale and set {_saleType} to saleType of tree when tree is not in use",
        "params": {
          "_saleType": "saleType for tree",
          "_treeId": "id of tree to check"
        },
        "returns": {
          "_0": "0 if a tree ready for a sale and 1 if a tree is in use or minted before"
        }
      },
      "manageSaleTypeBatch(uint256,uint256,uint32)": {
        "details": "set {_saleType} to saleType of trees in range {_startTreeId} and {_endTreeId}",
        "params": {
          "_endTreeId": "_ending tree id to set saleType value",
          "_saleType": "saleType value",
          "_startTreeId": "starting tree id to set saleType value"
        },
        "returns": {
          "_0": "true if all trees saleType value successfully set and false otherwise"
        }
      },
      "mintAssignedTree(uint256,address)": {
        "details": "mint a tree to funder and set saleType to 0",
        "params": {
          "_funder": "address of funder to mint tree for",
          "_treeId": "id of tree to mint"
        }
      },
      "mintTree(uint256,address)": {
        "details": "mint a tree to funder of tree",
        "params": {
          "_funder": "funder of a new tree sold in Regular",
          "_lastFundedTreeId": "The last tree funded in the regular sale"
        },
        "returns": {
          "_0": "the last tree funded after update"
        }
      },
      "mintTreeById(uint256,address)": {
        "details": "mint an already planted tree with id to funder",
        "params": {
          "_funder": "address of funder",
          "_treeId": "tree id to mint"
        }
      },
      "resetSaleType(uint256)": {
        "details": "reset saleType value of tree",
        "params": {
          "_treeId": "id of tree to reset saleType value"
        }
      },
      "resetSaleTypeBatch(uint256,uint256,uint256)": {
        "details": "reset saleType of trees in range of {_startTreeId} and {_endTreeId} with saleType value of {_saleType}",
        "params": {
          "_endTreeId": "ending tree id to reset saleType",
          "_saleType": "saleType value of trees",
          "_startTreeId": "starting tree id to reset saleType"
        }
      },
      "resetTreeStatusBatch(uint256,uint256)": {
        "details": "admin reset treeStatus of a given range to 0 NOTE emit {TreeStatusBatchReset} event",
        "params": {
          "_endTreeId": "end treeId",
          "_startTreeId": "start treeId"
        }
      },
      "setContractAddresses(uint8,address)": {
        "details": "admin set new address for given contract",
        "params": {
          "_address": "new address for contract",
          "_selector": "contract selector"
        }
      },
      "setUpdateInterval(uint256)": {
        "details": "admin set the minimum time to send next update request NOTE emit an {TreeUpdateIntervalChanged} event",
        "params": {
          "_seconds": "time to next update request"
        }
      },
      "updateLastRegualarTreeId(uint256)": {
        "details": "admin set new value for lastRegualarTreeId NOTE emit a {LastRegualarTreeIdUpdated} event",
        "params": {
          "_lastRegualarTreeId": "new value of lastRegualarTreeId"
        }
      },
      "updateTreeSpecs(uint64,string)": {
        "details": "script role update treeSpecs NOTE emit a {TreeSpecsUpdated} event",
        "params": {
          "_treeId": "id of tree to update treeSpecs",
          "_treeSpecs": "new tree specs"
        }
      },
      "verifyAssignedTree(uint256,address,uint256,string,uint64,uint16,uint8,bytes32,bytes32)": {
        "details": "allowed verifier can verify plant for assigned tree using signature.",
        "params": {
          "_birthDate": "birthDate of tree",
          "_countryCode": "countryCode of tree",
          "_nonce": "nonce value that signature created with",
          "_planter": "address of planter",
          "_r": "signature data",
          "_s": "signature data",
          "_treeId": "id of tree to verify",
          "_treeSpecs": "treeSpecs data",
          "_v": "signature data"
        }
      },
      "verifyAssignedTreeBatch((address,(uint256,uint256,string,uint64,uint16,uint8,bytes32,bytes32)[])[])": {
        "details": "allowed verifier can verify batch of plant for assigned trees using signature.",
        "params": {
          "_verifyAssignedTreeData": "array of verifyAssignedTree data including signature{v,r,s} and planting data"
        }
      },
      "verifyTree(uint256,address,string,uint64,uint16,uint8,bytes32,bytes32)": {
        "details": "allowed verifier can verify plant for regular tree using signature.",
        "params": {
          "_birthDate": "birthDate of tree",
          "_countryCode": "countryCode of tree",
          "_nonce": "nonce value that signature created with",
          "_planter": "address of planter",
          "_r": "signature data",
          "_s": "signature data",
          "_treeSpecs": "treeSpecs data",
          "_v": "signature data"
        }
      },
      "verifyTreeBatch((address,(uint256,string,uint64,uint16,uint8,bytes32,bytes32)[])[])": {
        "details": "allowed verifier can verify batch of plants for regular trees using signature.",
        "params": {
          "_verifyTreeData": "array of verifyTree data including signature{v,r,s} and planting data"
        }
      },
      "verifyUpdate(uint256,address,uint256,string,uint8,bytes32,bytes32)": {
        "details": "allowed verifier can verify update for a tree using signature. NOTE based on the current time of verifing and plant date, age of tree calculated and set as the treeStatus NOTE if a token exist for that tree (minted before) planter of tree funded based on calculated tree status",
        "params": {
          "_nonce": "nonce value that signature created with",
          "_planter": "address of planter",
          "_r": "signature data",
          "_s": "signature data",
          "_treeId": "id of tree to verify update",
          "_treeSpecs": "treeSpecs data",
          "_v": "signature data"
        }
      },
      "verifyUpdateBatch((address,(uint256,uint256,string,uint8,bytes32,bytes32)[])[])": {
        "details": "allowed verifier can verify batch of updates for trees using signature. NOTE based on the current time of verifing and plant date, age of tree calculated and set as the treeStatus NOTE if a token exist for that tree (minted before) planter of tree funded based on calculated tree status",
        "params": {
          "_verifyUpdateData": "array of verifyAssignedTree data including signature{v,r,s} and planting data"
        }
      }
    },
    "stateVariables": {
      "lastRegualarTreeId": {
        "return": "lastRegularTreeId ",
        "returns": {
          "_0": "lastRegularTreeId "
        }
      },
      "treeUpdateInterval": {
        "return": "minimum time to send next update request ",
        "returns": {
          "_0": "minimum time to send next update request "
        }
      }
    },
    "title": "TreeFactory Contract ",
    "version": 1
  },
  "userdoc": {
    "kind": "user",
    "methods": {
      "isTreeFactory()": {
        "notice": "NOTE {isTreeFactory} set inside the initialize to {true} "
      },
      "plantersNonce(address)": {
        "notice": "NOTE mapping of planterAddress to nonce "
      },
      "tempTrees(uint256)": {
        "notice": "deprecated "
      },
      "treeUpdates(uint256)": {
        "notice": "deprecated "
      },
      "trees(uint256)": {
        "notice": "NOTE mapping of treeId to TreeData Struct "
      }
    },
    "version": 1
  }
}